Component: ARM Compiler 5.05 update 1 (build 106) Tool: armlink [4d0efa]

==============================================================================

Section Cross References

    main.o(.text) refers to system.o(.text) for NVIC_Configuration
    main.o(.text) refers to usart.o(.text) for uart_init
    main.o(.text) refers to gpio.o(.text) for GpioInit
    main.o(.text) refers to delay.o(.text) for DelayInit
    main.o(.text) refers to buffermanage.o(.text) for BufferManageCreate
    main.o(.text) refers to main.o(.bss) for Managebuff
    main.o(.text) refers to buffermanage.o(.bss) for buff_manage_struct1
    main.o(.text) refers to delay.o(.data) for SysTickCntMs
    main.o(.text) refers to main.o(.data) for temp
    main.o(.text) refers to usart.o(.bss) for Usart1SendBuff
    system.o(.text) refers to misc.o(.text) for NVIC_PriorityGroupConfig
    usart.o(.text) refers to stm32f10x_rcc.o(.text) for RCC_APB2PeriphClockCmd
    usart.o(.text) refers to stm32f10x_gpio.o(.text) for GPIO_Init
    usart.o(.text) refers to stm32f10x_usart.o(.text) for USART_Init
    usart.o(.text) refers to buffermanage.o(.text) for BufferManageWrite
    usart.o(.text) refers to usart.o(.data) for Usart1SendData
    usart.o(.text) refers to usart.o(.bss) for Usart1ReadBuff
    usart.o(.text) refers to buffermanage.o(.bss) for buff_manage_struct2
==============================================================================

Removing Unused input sections from the image.

    Removing core_cm3.o(.emb_text), (32 bytes).
    Removing stm32f10x_flash.o(.text), (1468 bytes).
    Removing startup_stm32f10x_hd.o(HEAP), (512 bytes).
    Removing dadd.o(.text), (334 bytes).
    Removing dmul.o(.text), (228 bytes).
    Removing ddiv.o(.text), (222 bytes).
    Removing dfixul.o(.text), (48 bytes).
    Removing cdrcmple.o(.text), (48 bytes).
    Removing depilogue.o(.text), (186 bytes).

9 unused section(s) (total 3078 bytes) removed from the image.

==============================================================================

Image Symbol Table

    Local Symbols

    Symbol Name                              Value     Ov Type        Size  Object(Section)

    ../clib/microlib/division.c              0x00000000   Number         0  uidiv.o ABSOLUTE
    ../clib/microlib/division.c              0x00000000   Number         0  uldiv.o ABSOLUTE
    ../clib/microlib/init/entry.s            0x00000000   Number         0  entry9a.o ABSOLUTE
    ../clib/microlib/init/entry.s            0x00000000   Number         0  entry8b.o ABSOLUTE
    ../clib/microlib/init/entry.s            0x00000000   Number         0  entry8a.o ABSOLUTE
    ../clib/microlib/init/entry.s            0x00000000   Number         0  entry7b.o ABSOLUTE
    ../clib/microlib/init/entry.s            0x00000000   Number         0  entry.o ABSOLUTE
    ../clib/microlib/init/entry.s            0x00000000   Number         0  entry11a.o ABSOLUTE
    ../clib/microlib/init/entry.s            0x00000000   Number         0  entry7a.o ABSOLUTE
    ../clib/microlib/init/entry.s            0x00000000   Number         0  entry2.o ABSOLUTE
    ../clib/microlib/init/entry.s            0x00000000   Number         0  entry5.o ABSOLUTE
    ../clib/microlib/init/entry.s            0x00000000   Number         0  entry11b.o ABSOLUTE
    ../clib/microlib/init/entry.s            0x00000000   Number         0  entry10b.o ABSOLUTE
    ../clib/microlib/init/entry.s            0x00000000   Number         0  entry10a.o ABSOLUTE
    ../clib/microlib/init/entry.s            0x00000000   Number         0  entry9b.o ABSOLUTE
    ../clib/microlib/longlong.c              0x00000000   Number         0  llsshr.o ABSOLUTE
    ../clib/microlib/longlong.c              0x00000000   Number         0  llushr.o ABSOLUTE
    ../clib/microlib/longlong.c              0x00000000   Number         0  llshl.o ABSOLUTE
    ../clib/microlib/printf/printf.c         0x00000000   Number         0  printf6.o ABSOLUTE
    ../clib/microlib/printf/printf.c         0x00000000   Number         0  printf5.o ABSOLUTE
    ../clib/microlib/printf/printf.c         0x00000000   Number         0  printf4.o ABSOLUTE
    ../clib/microlib/printf/printf.c         0x00000000   Number         0  printf3.o ABSOLUTE
    ../clib/microlib/printf/printf.c         0x00000000   Number         0  printf1.o ABSOLUTE
    ../clib/microlib/printf/printf.c         0x00000000   Number         0  printf0.o ABSOLUTE
    ../clib/microlib/printf/printf.c         0x00000000   Number         0  printfb.o ABSOLUTE
    ../clib/microlib/printf/printf.c         0x00000000   Number         0  printf2.o ABSOLUTE
    ../clib/microlib/printf/printf.c         0x00000000   Number         0  printfa.o ABSOLUTE
    ../clib/microlib/printf/printf.c         0x00000000   Number         0  printf8.o ABSOLUTE
    ../clib/microlib/printf/printf.c         0x00000000   Number         0  printf7.o ABSOLUTE
    ../clib/microlib/stdio/streams.c         0x00000000   Number         0  stdout.o ABSOLUTE
    ../clib/microlib/string/memcpy.c         0x00000000   Number         0  memcpya.o ABSOLUTE
    ../clib/microlib/string/memcpy.c         0x00000000   Number         0  memcpyb.o ABSOLUTE
    ../clib/microlib/stubs.s                 0x00000000   Number         0  iusefp.o ABSOLUTE
    ../fplib/microlib/fpadd.c                0x00000000   Number         0  dadd.o ABSOLUTE
    ../fplib/microlib/fpdiv.c                0x00000000   Number         0  ddiv.o ABSOLUTE
    ../fplib/microlib/fpepilogue.c           0x00000000   Number         0  depilogue.o ABSOLUTE
    ../fplib/microlib/fpfix.c                0x00000000   Number         0  dfixul.o ABSOLUTE
    ../fplib/microlib/fpmul.c                0x00000000   Number         0  dmul.o ABSOLUTE
    ..\CMSIS\core_cm3.c                      0x00000000   Number         0  core_cm3.o ABSOLUTE
    ..\CMSIS\system_stm32f10x.c              0x00000000   Number         0  system_stm32f10x.o ABSOLUTE
    ..\Libraries\src\misc.c                  0x00000000   Number         0  misc.o ABSOLUTE
    ..\Libraries\src\stm32f10x_flash.c       0x00000000   Number         0  stm32f10x_flash.o ABSOLUTE
    ..\Libraries\src\stm32f10x_gpio.c        0x00000000   Number         0  stm32f10x_gpio.o ABSOLUTE
    ..\Libraries\src\stm32f10x_rcc.c         0x00000000   Number         0  stm32f10x_rcc.o ABSOLUTE
    ..\Libraries\src\stm32f10x_usart.c       0x00000000   Number         0  stm32f10x_usart.o ABSOLUTE
    ..\Startup\startup_stm32f10x_hd.s        0x00000000   Number         0  startup_stm32f10x_hd.o ABSOLUTE
    ..\User\BufferManage.c                   0x00000000   Number         0  buffermanage.o ABSOLUTE
    ..\User\LoopList.c                       0x00000000   Number         0  looplist.o ABSOLUTE
    ..\User\System.c                         0x00000000   Number         0  system.o ABSOLUTE
    ..\User\delay.c                          0x00000000   Number         0  delay.o ABSOLUTE
    ..\User\gpio.c                           0x00000000   Number         0  gpio.o ABSOLUTE
    ..\User\main.c                           0x00000000   Number         0  main.o ABSOLUTE
    ..\User\stm32f10x_it.c                   0x00000000   Number         0  stm32f10x_it.o ABSOLUTE
    ..\User\usart.c                          0x00000000   Number         0  usart.o ABSOLUTE
    ..\\CMSIS\\core_cm3.c                    0x00000000   Number         0  core_cm3.o ABSOLUTE
    cdrcmple.s                               0x00000000   Number         0  cdrcmple.o ABSOLUTE
    dc.s                                     0x00000000   Number         0  dc.o ABSOLUTE
    handlers.s                               0x00000000   Number         0  handlers.o ABSOLUTE
    init.s                                   0x00000000   Number         0  init.o ABSOLUTE
    RESET                                    0x08000000   Section      304  startup_stm32f10x_hd.o(RESET)
    .ARM.Collect$$$$00000000                 0x08000130   Section        0  entry.o(.ARM.Collect$$$$00000000)
    .ARM.Collect$$$$00000001                 0x08000130   Section        4  entry2.o(.ARM.Collect$$$$00000001)
    .ARM.Collect$$$$00000004                 0x08000134   Section        4  entry5.o(.ARM.Collect$$$$00000004)
    .ARM.Collect$$$$00000008                 0x08000138   Section        0  entry7b.o(.ARM.Collect$$$$00000008)
    .ARM.Collect$$$$0000000A                 0x08000138   Section        0  entry8b.o(.ARM.Collect$$$$0000000A)
    .ARM.Collect$$$$0000000B                 0x08000138   Section        8  entry9a.o(.ARM.Collect$$$$0000000B)
    .ARM.Collect$$$$0000000D                 0x08000140   Section        0  entry10a.o(.ARM.Collect$$$$0000000D)
    .ARM.Collect$$$$0000000F                 0x08000140   Section        0  entry11a.o(.ARM.Collect$$$$0000000F)
    .ARM.Collect$$$$00002712                 0x08000140   Section        4  entry2.o(.ARM.Collect$$$$00002712)
    __lit__00000000                          0x08000140   Data           4  entry2.o(.ARM.Collect$$$$00002712)
    .text                                    0x08000144   Section        0  stm32f10x_it.o(.text)
    .text                                    0x08000184   Section        0  main.o(.text)
    .text                                    0x0800024c   Section        0  system.o(.text)
    .text                                    0x0800029c   Section        0  usart.o(.text)
    .text                                    0x080004bc   Section        0  gpio.o(.text)
    .text                                    0x0800053c   Section        0  looplist.o(.text)
    .text                                    0x08000848   Section        0  delay.o(.text)
    .text                                    0x08000904   Section        0  buffermanage.o(.text)
    .text                                    0x080009f4   Section        0  system_stm32f10x.o(.text)
    SetSysClockTo72                          0x080009f5   Thumb Code   214  system_stm32f10x.o(.text)
    SetSysClock                              0x08000acb   Thumb Code     8  system_stm32f10x.o(.text)
    .text                                    0x08000bd4   Section        0  misc.o(.text)
    .text                                    0x08000cb0   Section        0  stm32f10x_rcc.o(.text)
    .text                                    0x08001054   Section        0  stm32f10x_usart.o(.text)
    .text                                    0x0800145c   Section        0  stm32f10x_gpio.o(.text)
    .text                                    0x080017b8   Section       36  startup_stm32f10x_hd.o(.text)
    .text                                    0x080017dc   Section        0  memcpya.o(.text)
    .text                                    0x08001800   Section       36  init.o(.text)
    i.__0printf$bare                         0x08001824   Section        0  printfb.o(i.__0printf$bare)
    i.__scatterload_copy                     0x08001834   Section       14  handlers.o(i.__scatterload_copy)
    i.__scatterload_null                     0x08001842   Section        2  handlers.o(i.__scatterload_null)
    i.__scatterload_zeroinit                 0x08001844   Section       14  handlers.o(i.__scatterload_zeroinit)
    i._printf_core                           0x08001852   Section        0  printfb.o(i._printf_core)
    _printf_core                             0x08001853   Thumb Code    34  printfb.o(i._printf_core)
    .data                                    0x20000000   Section       47  main.o(.data)
    .data                                    0x20000030   Section       29  usart.o(.data)
    flage                                    0x2000004c   Data           1  usart.o(.data)
    .data                                    0x20000050   Section        4  delay.o(.data)
    .data                                    0x20000054   Section       20  system_stm32f10x.o(.data)
    .data                                    0x20000068   Section       20  stm32f10x_rcc.o(.data)
    APBAHBPrescTable                         0x20000068   Data          16  stm32f10x_rcc.o(.data)
    ADCPrescTable                            0x20000078   Data           4  stm32f10x_rcc.o(.data)
    .data                                    0x2000007c   Section        4  stdout.o(.data)
    .bss                                     0x20000080   Section     3152  main.o(.bss)
    .bss                                     0x20000cd0   Section     1174  usart.o(.bss)
    .bss                                     0x20001168   Section      112  buffermanage.o(.bss)
    STACK                                    0x200011d8   Section     1024  startup_stm32f10x_hd.o(STACK)

    Global Symbols

    Symbol Name                              Value     Ov Type        Size  Object(Section)

    BuildAttributes$$THM_ISAv4$P$D$K$B$S$PE$A:L22UL41UL21$X:L11$S22US41US21$IEEE1$IW$USESV6$~STKCKD$USESV7$~SHL$OSPACE$ROPI$EBA8$MICROLIB$REQ8$PRES8$EABIv2 0x00000000   Number         0  anon$$obj.o ABSOLUTE
    __ARM_use_no_argv                        0x00000000   Number         0  main.o ABSOLUTE
    __cpp_initialize__aeabi_                  - Undefined Weak Reference
    __cxa_finalize                            - Undefined Weak Reference
    __decompress                              - Undefined Weak Reference
    _clock_init                               - Undefined Weak Reference
    _microlib_exit                            - Undefined Weak Reference
    __Vectors_Size                           0x00000130   Number         0  startup_stm32f10x_hd.o ABSOLUTE
    __Vectors                                0x08000000   Data           4  startup_stm32f10x_hd.o(RESET)
    __Vectors_End                            0x08000130   Data           0  startup_stm32f10x_hd.o(RESET)
    __main                                   0x08000131   Thumb Code     0  entry.o(.ARM.Collect$$$$00000000)
    _main_stk                                0x08000131   Thumb Code     0  entry2.o(.ARM.Collect$$$$00000001)
    _main_scatterload                        0x08000135   Thumb Code     0  entry5.o(.ARM.Collect$$$$00000004)
    __main_after_scatterload                 0x08000139   Thumb Code     0  entry5.o(.ARM.Collect$$$$00000004)
    _main_clock                              0x08000139   Thumb Code     0  entry7b.o(.ARM.Collect$$$$00000008)
    _main_cpp_init                           0x08000139   Thumb Code     0  entry8b.o(.ARM.Collect$$$$0000000A)
    _main_init                               0x08000139   Thumb Code     0  entry9a.o(.ARM.Collect$$$$0000000B)
    __rt_final_cpp                           0x08000141   Thumb Code     0  entry10a.o(.ARM.Collect$$$$0000000D)
    __rt_final_exit                          0x08000141   Thumb Code     0  entry11a.o(.ARM.Collect$$$$0000000F)
    NMI_Handler                              0x08000145   Thumb Code     2  stm32f10x_it.o(.text)
    HardFault_Handler                        0x08000147   Thumb Code    36  stm32f10x_it.o(.text)
    MemManage_Handler                        0x0800016b   Thumb Code     4  stm32f10x_it.o(.text)
    BusFault_Handler                         0x0800016f   Thumb Code     4  stm32f10x_it.o(.text)
    UsageFault_Handler                       0x08000173   Thumb Code     4  stm32f10x_it.o(.text)
    SVC_Handler                              0x08000177   Thumb Code     2  stm32f10x_it.o(.text)
    DebugMon_Handler                         0x08000179   Thumb Code     2  stm32f10x_it.o(.text)
    PendSV_Handler                           0x0800017b   Thumb Code     2  stm32f10x_it.o(.text)
    main                                     0x08000185   Thumb Code   156  main.o(.text)
    NVIC_Configuration                       0x0800024d   Thumb Code    40  system.o(.text)
    Reset_MCU                                0x08000275   Thumb Code    32  system.o(.text)
    uart_init                                0x0800029d   Thumb Code   136  usart.o(.text)
    UsartOutStr                              0x08000325   Thumb Code    42  usart.o(.text)
    UsartOutStrIT                            0x0800034f   Thumb Code    28  usart.o(.text)
    UsartOutChar                             0x0800036b   Thumb Code    28  usart.o(.text)
    USART1_IRQHandler                        0x08000387   Thumb Code   218  usart.o(.text)
    fputc                                    0x08000461   Thumb Code    56  usart.o(.text)
    GpioInit                                 0x080004bd   Thumb Code   120  gpio.o(.text)
    rbCreate                                 0x0800053d   Thumb Code    34  looplist.o(.text)
    rbDelete                                 0x0800055f   Thumb Code    28  looplist.o(.text)
    rbCapacity                               0x0800057b   Thumb Code    22  looplist.o(.text)
    rbCanRead                                0x08000591   Thumb Code    62  looplist.o(.text)
    rbCanWrite                               0x080005cf   Thumb Code    36  looplist.o(.text)
    rbRead                                   0x080005f3   Thumb Code   174  looplist.o(.text)
    rbWrite                                  0x080006a1   Thumb Code   176  looplist.o(.text)
    PutData                                  0x08000751   Thumb Code    58  looplist.o(.text)
    DelayInit                                0x08000849   Thumb Code    92  delay.o(.text)
    delay_ms                                 0x080008a5   Thumb Code    18  delay.o(.text)
    SysTick_Handler                          0x080008b7   Thumb Code    54  delay.o(.text)
    BufferManageCreate                       0x08000905   Thumb Code    64  buffermanage.o(.text)
    BufferManageWrite                        0x08000945   Thumb Code    78  buffermanage.o(.text)
    BufferManageRead                         0x08000993   Thumb Code    62  buffermanage.o(.text)
    BufferManageClear                        0x080009d1   Thumb Code    36  buffermanage.o(.text)
    SystemInit                               0x08000ad3   Thumb Code    78  system_stm32f10x.o(.text)
    SystemCoreClockUpdate                    0x08000b21   Thumb Code   142  system_stm32f10x.o(.text)
    NVIC_PriorityGroupConfig                 0x08000bd5   Thumb Code    10  misc.o(.text)
    NVIC_Init                                0x08000bdf   Thumb Code   100  misc.o(.text)
    NVIC_SetVectorTable                      0x08000c43   Thumb Code    14  misc.o(.text)
    NVIC_SystemLPConfig                      0x08000c51   Thumb Code    34  misc.o(.text)
    SysTick_CLKSourceConfig                  0x08000c73   Thumb Code    40  misc.o(.text)
    RCC_DeInit                               0x08000cb1   Thumb Code    64  stm32f10x_rcc.o(.text)
    RCC_HSEConfig                            0x08000cf1   Thumb Code    70  stm32f10x_rcc.o(.text)
    RCC_GetFlagStatus                        0x08000d37   Thumb Code    56  stm32f10x_rcc.o(.text)
    RCC_WaitForHSEStartUp                    0x08000d6f   Thumb Code    56  stm32f10x_rcc.o(.text)
    RCC_AdjustHSICalibrationValue            0x08000da7   Thumb Code    20  stm32f10x_rcc.o(.text)
    RCC_HSICmd                               0x08000dbb   Thumb Code     6  stm32f10x_rcc.o(.text)
    RCC_PLLConfig                            0x08000dc1   Thumb Code    24  stm32f10x_rcc.o(.text)
    RCC_PLLCmd                               0x08000dd9   Thumb Code     6  stm32f10x_rcc.o(.text)
    RCC_SYSCLKConfig                         0x08000ddf   Thumb Code    18  stm32f10x_rcc.o(.text)
    RCC_GetSYSCLKSource                      0x08000df1   Thumb Code    10  stm32f10x_rcc.o(.text)
    RCC_HCLKConfig                           0x08000dfb   Thumb Code    18  stm32f10x_rcc.o(.text)
    RCC_PCLK1Config                          0x08000e0d   Thumb Code    18  stm32f10x_rcc.o(.text)
    RCC_PCLK2Config                          0x08000e1f   Thumb Code    20  stm32f10x_rcc.o(.text)
    RCC_ITConfig                             0x08000e33   Thumb Code    26  stm32f10x_rcc.o(.text)
    RCC_USBCLKConfig                         0x08000e4d   Thumb Code     8  stm32f10x_rcc.o(.text)
    RCC_ADCCLKConfig                         0x08000e55   Thumb Code    18  stm32f10x_rcc.o(.text)
    RCC_LSEConfig                            0x08000e67   Thumb Code    50  stm32f10x_rcc.o(.text)
    RCC_LSICmd                               0x08000e99   Thumb Code     6  stm32f10x_rcc.o(.text)
    RCC_RTCCLKConfig                         0x08000e9f   Thumb Code    12  stm32f10x_rcc.o(.text)
    RCC_RTCCLKCmd                            0x08000eab   Thumb Code     8  stm32f10x_rcc.o(.text)
    RCC_GetClocksFreq                        0x08000eb3   Thumb Code   192  stm32f10x_rcc.o(.text)
    RCC_AHBPeriphClockCmd                    0x08000f73   Thumb Code    26  stm32f10x_rcc.o(.text)
    RCC_APB2PeriphClockCmd                   0x08000f8d   Thumb Code    26  stm32f10x_rcc.o(.text)
    RCC_APB1PeriphClockCmd                   0x08000fa7   Thumb Code    26  stm32f10x_rcc.o(.text)
    RCC_APB2PeriphResetCmd                   0x08000fc1   Thumb Code    26  stm32f10x_rcc.o(.text)
    RCC_APB1PeriphResetCmd                   0x08000fdb   Thumb Code    26  stm32f10x_rcc.o(.text)
    RCC_BackupResetCmd                       0x08000ff5   Thumb Code     8  stm32f10x_rcc.o(.text)
    RCC_ClockSecuritySystemCmd               0x08000ffd   Thumb Code     6  stm32f10x_rcc.o(.text)
    RCC_MCOConfig                            0x08001003   Thumb Code     6  stm32f10x_rcc.o(.text)
    RCC_ClearFlag                            0x08001009   Thumb Code    14  stm32f10x_rcc.o(.text)
    RCC_GetITStatus                          0x08001017   Thumb Code    20  stm32f10x_rcc.o(.text)
    RCC_ClearITPendingBit                    0x0800102b   Thumb Code     6  stm32f10x_rcc.o(.text)
    USART_DeInit                             0x08001055   Thumb Code   134  stm32f10x_usart.o(.text)
    USART_Init                               0x080010db   Thumb Code   210  stm32f10x_usart.o(.text)
    USART_StructInit                         0x080011ad   Thumb Code    24  stm32f10x_usart.o(.text)
    USART_ClockInit                          0x080011c5   Thumb Code    34  stm32f10x_usart.o(.text)
    USART_ClockStructInit                    0x080011e7   Thumb Code    12  stm32f10x_usart.o(.text)
    USART_Cmd                                0x080011f3   Thumb Code    24  stm32f10x_usart.o(.text)
    USART_ITConfig                           0x0800120b   Thumb Code    74  stm32f10x_usart.o(.text)
    USART_DMACmd                             0x08001255   Thumb Code    18  stm32f10x_usart.o(.text)
    USART_SetAddress                         0x08001267   Thumb Code    18  stm32f10x_usart.o(.text)
    USART_WakeUpConfig                       0x08001279   Thumb Code    18  stm32f10x_usart.o(.text)
    USART_ReceiverWakeUpCmd                  0x0800128b   Thumb Code    24  stm32f10x_usart.o(.text)
    USART_LINBreakDetectLengthConfig         0x080012a3   Thumb Code    18  stm32f10x_usart.o(.text)
    USART_LINCmd                             0x080012b5   Thumb Code    24  stm32f10x_usart.o(.text)
    USART_SendData                           0x080012cd   Thumb Code     8  stm32f10x_usart.o(.text)
    USART_ReceiveData                        0x080012d5   Thumb Code    10  stm32f10x_usart.o(.text)
    USART_SendBreak                          0x080012df   Thumb Code    10  stm32f10x_usart.o(.text)
    USART_SetGuardTime                       0x080012e9   Thumb Code    16  stm32f10x_usart.o(.text)
    USART_SetPrescaler                       0x080012f9   Thumb Code    16  stm32f10x_usart.o(.text)
    USART_SmartCardCmd                       0x08001309   Thumb Code    24  stm32f10x_usart.o(.text)
    USART_SmartCardNACKCmd                   0x08001321   Thumb Code    24  stm32f10x_usart.o(.text)
    USART_HalfDuplexCmd                      0x08001339   Thumb Code    24  stm32f10x_usart.o(.text)
    USART_OverSampling8Cmd                   0x08001351   Thumb Code    22  stm32f10x_usart.o(.text)
    USART_OneBitMethodCmd                    0x08001367   Thumb Code    24  stm32f10x_usart.o(.text)
    USART_IrDAConfig                         0x0800137f   Thumb Code    18  stm32f10x_usart.o(.text)
    USART_IrDACmd                            0x08001391   Thumb Code    24  stm32f10x_usart.o(.text)
    USART_GetFlagStatus                      0x080013a9   Thumb Code    26  stm32f10x_usart.o(.text)
    USART_ClearFlag                          0x080013c3   Thumb Code    18  stm32f10x_usart.o(.text)
    USART_GetITStatus                        0x080013d5   Thumb Code    84  stm32f10x_usart.o(.text)
    USART_ClearITPendingBit                  0x08001429   Thumb Code    52  stm32f10x_usart.o(.text)
    GPIO_DeInit                              0x0800145d   Thumb Code   172  stm32f10x_gpio.o(.text)
    GPIO_AFIODeInit                          0x08001509   Thumb Code    20  stm32f10x_gpio.o(.text)
    GPIO_Init                                0x0800151d   Thumb Code   278  stm32f10x_gpio.o(.text)
    GPIO_StructInit                          0x08001633   Thumb Code    16  stm32f10x_gpio.o(.text)
    GPIO_ReadInputDataBit                    0x08001643   Thumb Code    18  stm32f10x_gpio.o(.text)
    GPIO_ReadInputData                       0x08001655   Thumb Code     8  stm32f10x_gpio.o(.text)
    GPIO_ReadOutputDataBit                   0x0800165d   Thumb Code    18  stm32f10x_gpio.o(.text)
    GPIO_ReadOutputData                      0x0800166f   Thumb Code     8  stm32f10x_gpio.o(.text)
    GPIO_SetBits                             0x08001677   Thumb Code     4  stm32f10x_gpio.o(.text)
    GPIO_ResetBits                           0x0800167b   Thumb Code     4  stm32f10x_gpio.o(.text)
    GPIO_WriteBit                            0x0800167f   Thumb Code    10  stm32f10x_gpio.o(.text)
    GPIO_Write                               0x08001689   Thumb Code     4  stm32f10x_gpio.o(.text)
    GPIO_PinLockConfig                       0x0800168d   Thumb Code    18  stm32f10x_gpio.o(.text)
    GPIO_EventOutputConfig                   0x0800169f   Thumb Code    26  stm32f10x_gpio.o(.text)
    GPIO_EventOutputCmd                      0x080016b9   Thumb Code     6  stm32f10x_gpio.o(.text)
    GPIO_PinRemapConfig                      0x080016bf   Thumb Code   138  stm32f10x_gpio.o(.text)
    GPIO_EXTILineConfig                      0x08001749   Thumb Code    66  stm32f10x_gpio.o(.text)
    GPIO_ETH_MediaInterfaceConfig            0x0800178b   Thumb Code     8  stm32f10x_gpio.o(.text)
    Reset_Handler                            0x080017b9   Thumb Code     8  startup_stm32f10x_hd.o(.text)
    ADC1_2_IRQHandler                        0x080017d3   Thumb Code     0  startup_stm32f10x_hd.o(.text)
    ADC3_IRQHandler                          0x080017d3   Thumb Code     0  startup_stm32f10x_hd.o(.text)
    CAN1_RX1_IRQHandler                      0x080017d3   Thumb Code     0  startup_stm32f10x_hd.o(.text)
    CAN1_SCE_IRQHandler                      0x080017d3   Thumb Code     0  startup_stm32f10x_hd.o(.text)
    DMA1_Channel1_IRQHandler                 0x080017d3   Thumb Code     0  startup_stm32f10x_hd.o(.text)
    DMA1_Channel2_IRQHandler                 0x080017d3   Thumb Code     0  startup_stm32f10x_hd.o(.text)
    DMA1_Channel3_IRQHandler                 0x080017d3   Thumb Code     0  startup_stm32f10x_hd.o(.text)
    DMA1_Channel4_IRQHandler                 0x080017d3   Thumb Code     0  startup_stm32f10x_hd.o(.text)
    DMA1_Channel5_IRQHandler                 0x080017d3   Thumb Code     0  startup_stm32f10x_hd.o(.text)
    DMA1_Channel6_IRQHandler                 0x080017d3   Thumb Code     0  startup_stm32f10x_hd.o(.text)
    DMA1_Channel7_IRQHandler                 0x080017d3   Thumb Code     0  startup_stm32f10x_hd.o(.text)
    DMA2_Channel1_IRQHandler                 0x080017d3   Thumb Code     0  startup_stm32f10x_hd.o(.text)
    DMA2_Channel2_IRQHandler                 0x080017d3   Thumb Code     0  startup_stm32f10x_hd.o(.text)
    DMA2_Channel3_IRQHandler                 0x080017d3   Thumb Code     0  startup_stm32f10x_hd.o(.text)
    DMA2_Channel4_5_IRQHandler               0x080017d3   Thumb Code     0  startup_stm32f10x_hd.o(.text)
    EXTI0_IRQHandler                         0x080017d3   Thumb Code     0  startup_stm32f10x_hd.o(.text)
    EXTI15_10_IRQHandler                     0x080017d3   Thumb Code     0  startup_stm32f10x_hd.o(.text)
    EXTI1_IRQHandler                         0x080017d3   Thumb Code     0  startup_stm32f10x_hd.o(.text)
    EXTI2_IRQHandler                         0x080017d3   Thumb Code     0  startup_stm32f10x_hd.o(.text)
    EXTI3_IRQHandler                         0x080017d3   Thumb Code     0  startup_stm32f10x_hd.o(.text)
    EXTI4_IRQHandler                         0x080017d3   Thumb Code     0  startup_stm32f10x_hd.o(.text)
    EXTI9_5_IRQHandler                       0x080017d3   Thumb Code     0  startup_stm32f10x_hd.o(.text)
    FLASH_IRQHandler                         0x080017d3   Thumb Code     0  startup_stm32f10x_hd.o(.text)
    FSMC_IRQHandler                          0x080017d3   Thumb Code     0  startup_stm32f10x_hd.o(.text)
    I2C1_ER_IRQHandler                       0x080017d3   Thumb Code     0  startup_stm32f10x_hd.o(.text)
    I2C1_EV_IRQHandler                       0x080017d3   Thumb Code     0  startup_stm32f10x_hd.o(.text)
    I2C2_ER_IRQHandler                       0x080017d3   Thumb Code     0  startup_stm32f10x_hd.o(.text)
    I2C2_EV_IRQHandler                       0x080017d3   Thumb Code     0  startup_stm32f10x_hd.o(.text)
    PVD_IRQHandler                           0x080017d3   Thumb Code     0  startup_stm32f10x_hd.o(.text)
    RCC_IRQHandler                           0x080017d3   Thumb Code     0  startup_stm32f10x_hd.o(.text)
    RTCAlarm_IRQHandler                      0x080017d3   Thumb Code     0  startup_stm32f10x_hd.o(.text)
    RTC_IRQHandler                           0x080017d3   Thumb Code     0  startup_stm32f10x_hd.o(.text)
    SDIO_IRQHandler                          0x080017d3   Thumb Code     0  startup_stm32f10x_hd.o(.text)
    SPI1_IRQHandler                          0x080017d3   Thumb Code     0  startup_stm32f10x_hd.o(.text)
    SPI2_IRQHandler                          0x080017d3   Thumb Code     0  startup_stm32f10x_hd.o(.text)
    SPI3_IRQHandler                          0x080017d3   Thumb Code     0  startup_stm32f10x_hd.o(.text)
    TAMPER_IRQHandler                        0x080017d3   Thumb Code     0  startup_stm32f10x_hd.o(.text)
    TIM1_BRK_IRQHandler                      0x080017d3   Thumb Code     0  startup_stm32f10x_hd.o(.text)
    TIM1_CC_IRQHandler                       0x080017d3   Thumb Code     0  startup_stm32f10x_hd.o(.text)
    TIM1_TRG_COM_IRQHandler                  0x080017d3   Thumb Code     0  startup_stm32f10x_hd.o(.text)
    TIM1_UP_IRQHandler                       0x080017d3   Thumb Code     0  startup_stm32f10x_hd.o(.text)
    TIM2_IRQHandler                          0x080017d3   Thumb Code     0  startup_stm32f10x_hd.o(.text)
    TIM3_IRQHandler                          0x080017d3   Thumb Code     0  startup_stm32f10x_hd.o(.text)
    TIM4_IRQHandler                          0x080017d3   Thumb Code     0  startup_stm32f10x_hd.o(.text)
    TIM5_IRQHandler                          0x080017d3   Thumb Code     0  startup_stm32f10x_hd.o(.text)
    TIM6_IRQHandler                          0x080017d3   Thumb Code     0  startup_stm32f10x_hd.o(.text)
    TIM7_IRQHandler                          0x080017d3   Thumb Code     0  startup_stm32f10x_hd.o(.text)
    TIM8_BRK_IRQHandler                      0x080017d3   Thumb Code     0  startup_stm32f10x_hd.o(.text)
    TIM8_CC_IRQHandler                       0x080017d3   Thumb Code     0  startup_stm32f10x_hd.o(.text)
    TIM8_TRG_COM_IRQHandler                  0x080017d3   Thumb Code     0  startup_stm32f10x_hd.o(.text)
    TIM8_UP_IRQHandler                       0x080017d3   Thumb Code     0  startup_stm32f10x_hd.o(.text)
    UART4_IRQHandler                         0x080017d3   Thumb Code     0  startup_stm32f10x_hd.o(.text)
    UART5_IRQHandler                         0x080017d3   Thumb Code     0  startup_stm32f10x_hd.o(.text)
    USART2_IRQHandler                        0x080017d3   Thumb Code     0  startup_stm32f10x_hd.o(.text)
    USART3_IRQHandler                        0x080017d3   Thumb Code     0  startup_stm32f10x_hd.o(.text)
    USBWakeUp_IRQHandler                     0x080017d3   Thumb Code     0  startup_stm32f10x_hd.o(.text)
    USB_HP_CAN1_TX_IRQHandler                0x080017d3   Thumb Code     0  startup_stm32f10x_hd.o(.text)
    USB_LP_CAN1_RX0_IRQHandler               0x080017d3   Thumb Code     0  startup_stm32f10x_hd.o(.text)
    WWDG_IRQHandler                          0x080017d3   Thumb Code     0  startup_stm32f10x_hd.o(.text)
    __aeabi_memcpy                           0x080017dd   Thumb Code    36  memcpya.o(.text)
    __aeabi_memcpy4                          0x080017dd   Thumb Code     0  memcpya.o(.text)
    __aeabi_memcpy8                          0x080017dd   Thumb Code     0  memcpya.o(.text)
    __scatterload                            0x08001801   Thumb Code    28  init.o(.text)
    __scatterload_rt2                        0x08001801   Thumb Code     0  init.o(.text)
    __0printf$bare                           0x08001825   Thumb Code     8  printfb.o(i.__0printf$bare)
    __1printf$bare                           0x08001825   Thumb Code     0  printfb.o(i.__0printf$bare)
    __2printf                                0x08001825   Thumb Code     0  printfb.o(i.__0printf$bare)
    __scatterload_copy                       0x08001835   Thumb Code    14  handlers.o(i.__scatterload_copy)
    __scatterload_null                       0x08001843   Thumb Code     2  handlers.o(i.__scatterload_null)
    __scatterload_zeroinit                   0x08001845   Thumb Code    14  handlers.o(i.__scatterload_zeroinit)
    Region$$Table$$Base                      0x08001874   Number         0  anon$$obj.o(Region$$Table)
    Region$$Table$$Limit                     0x08001894   Number         0  anon$$obj.o(Region$$Table)
    temp                                     0x20000000   Data          17  main.o(.data)
    temp1                                    0x20000011   Data          30  main.o(.data)
    Usart1ReadCnt                            0x20000030   Data           4  usart.o(.data)
    Usart1ReadCntCopy                        0x20000034   Data           4  usart.o(.data)
    Usart1IdleCnt                            0x20000038   Data           4  usart.o(.data)
    Usart1IdleTime                           0x2000003c   Data           4  usart.o(.data)
    Usart1ReadFlage                          0x20000040   Data           1  usart.o(.data)
    Usart1ClearIdleIT                        0x20000041   Data           1  usart.o(.data)
    Usart1SendData                           0x20000044   Data           4  usart.o(.data)
    Usart1SendDataCnt                        0x20000048   Data           4  usart.o(.data)
    SysTickCntMs                             0x20000050   Data           4  delay.o(.data)
    SystemCoreClock                          0x20000054   Data           4  system_stm32f10x.o(.data)
    AHBPrescTable                            0x20000058   Data          16  system_stm32f10x.o(.data)
    __stdout                                 0x2000007c   Data           4  stdout.o(.data)
    buff                                     0x20000080   Data        1024  main.o(.bss)
    Managebuff                               0x20000480   Data          40  main.o(.bss)
    read_buff                                0x200004a8   Data        1024  main.o(.bss)
    read_manage_buff                         0x200008a8   Data          40  main.o(.bss)
    read_buff_copy                           0x200008d0   Data        1024  main.o(.bss)
    Usart1ReadBuff                           0x20000cd0   Data         150  usart.o(.bss)
    Usart1SendBuff                           0x20000d66   Data        1024  usart.o(.bss)
    buff_manage_struct1                      0x20001168   Data          56  buffermanage.o(.bss)
    buff_manage_struct2                      0x200011a0   Data          56  buffermanage.o(.bss)
    __initial_sp                             0x200015d8   Data           0  startup_stm32f10x_hd.o(STACK)



==============================================================================

Memory Map of the image

  Image Entry point : 0x08000131

  Load Region LR_IROM1 (Base: 0x08000000, Size: 0x00001914, Max: 0x00010000, ABSOLUTE)

    Execution Region ER_IROM1 (Base: 0x08000000, Size: 0x00001894, Max: 0x00010000, ABSOLUTE)

    Base Addr    Size         Type   Attr      Idx    E Section Name        Object

    0x08000000   0x00000130   Data   RO          359    RESET               startup_stm32f10x_hd.o
    0x08000130   0x00000000   Code   RO          364  * .ARM.Collect$$$$00000000  mc_w.l(entry.o)
    0x08000130   0x00000004   Code   RO          631    .ARM.Collect$$$$00000001  mc_w.l(entry2.o)
    0x08000134   0x00000004   Code   RO          634    .ARM.Collect$$$$00000004  mc_w.l(entry5.o)
    0x08000138   0x00000000   Code   RO          636    .ARM.Collect$$$$00000008  mc_w.l(entry7b.o)
    0x08000138   0x00000000   Code   RO          638    .ARM.Collect$$$$0000000A  mc_w.l(entry8b.o)
    0x08000138   0x00000008   Code   RO          639    .ARM.Collect$$$$0000000B  mc_w.l(entry9a.o)
    0x08000140   0x00000000   Code   RO          641    .ARM.Collect$$$$0000000D  mc_w.l(entry10a.o)
    0x08000140   0x00000000   Code   RO          643    .ARM.Collect$$$$0000000F  mc_w.l(entry11a.o)
    0x08000140   0x00000004   Code   RO          632    .ARM.Collect$$$$00002712  mc_w.l(entry2.o)
    0x08000144   0x00000040   Code   RO            1    .text               stm32f10x_it.o
    0x08000184   0x000000c8   Code   RO          104    .text               main.o
    0x0800024c   0x00000050   Code   RO          161    .text               system.o
    0x0800029c   0x00000220   Code   RO          173    .text               usart.o
    0x080004bc   0x00000080   Code   RO          192    .text               gpio.o
    0x0800053c   0x0000030c   Code   RO          204    .text               looplist.o
    0x08000848   0x000000bc   Code   RO          226    .text               delay.o
    0x08000904   0x000000f0   Code   RO          248    .text               buffermanage.o
    0x080009f4   0x000001e0   Code   RO          277    .text               system_stm32f10x.o
    0x08000bd4   0x000000dc   Code   RO          295    .text               misc.o
    0x08000cb0   0x000003a4   Code   RO          307    .text               stm32f10x_rcc.o
    0x08001054   0x00000408   Code   RO          321    .text               stm32f10x_usart.o
    0x0800145c   0x0000035c   Code   RO          345    .text               stm32f10x_gpio.o
    0x080017b8   0x00000024   Code   RO          360    .text               startup_stm32f10x_hd.o
    0x080017dc   0x00000024   Code   RO          367    .text               mc_w.l(memcpya.o)
    0x08001800   0x00000024   Code   RO          661    .text               mc_w.l(init.o)
    0x08001824   0x00000010   Code   RO          372    i.__0printf$bare    mc_w.l(printfb.o)
    0x08001834   0x0000000e   Code   RO          673    i.__scatterload_copy  mc_w.l(handlers.o)
    0x08001842   0x00000002   Code   RO          674    i.__scatterload_null  mc_w.l(handlers.o)
    0x08001844   0x0000000e   Code   RO          675    i.__scatterload_zeroinit  mc_w.l(handlers.o)
    0x08001852   0x00000022   Code   RO          379    i._printf_core      mc_w.l(printfb.o)
    0x08001874   0x00000020   Data   RO          671    Region$$Table       anon$$obj.o


    Execution Region RW_IRAM1 (Base: 0x20000000, Size: 0x000015d8, Max: 0x00005000, ABSOLUTE)

    Base Addr    Size         Type   Attr      Idx    E Section Name        Object

    0x20000000   0x0000002f   Data   RW          106    .data               main.o
    0x2000002f   0x00000001   PAD
    0x20000030   0x0000001d   Data   RW          175    .data               usart.o
    0x2000004d   0x00000003   PAD
    0x20000050   0x00000004   Data   RW          227    .data               delay.o
    0x20000054   0x00000014   Data   RW          278    .data               system_stm32f10x.o
    0x20000068   0x00000014   Data   RW          308    .data               stm32f10x_rcc.o
    0x2000007c   0x00000004   Data   RW          645    .data               mc_w.l(stdout.o)
    0x20000080   0x00000c50   Zero   RW          105    .bss                main.o
    0x20000cd0   0x00000496   Zero   RW          174    .bss                usart.o
    0x20001166   0x00000002   PAD
    0x20001168   0x00000070   Zero   RW          249    .bss                buffermanage.o
    0x200011d8   0x00000400   Zero   RW          357    STACK               startup_stm32f10x_hd.o


==============================================================================

Image component sizes


      Code (inc. data)   RO Data    RW Data    ZI Data      Debug   Object Name

       240          0          0          0        112       2904   buffermanage.o
         0          0          0          0          0         32   core_cm3.o
       188         24          0          4          0      16427   delay.o
       128          8          0          0          0        567   gpio.o
       780        190          0          0          0       3499   looplist.o
       200         44          0         47       3152       3198   main.o
       220         22          0          0          0       1877   misc.o
        36          8        304          0       1024        836   startup_stm32f10x_hd.o
       860         38          0          0          0       5725   stm32f10x_gpio.o
        64          8          0          0          0     247649   stm32f10x_it.o
       932         36          0         20          0       8940   stm32f10x_rcc.o
      1032         22          0          0          0       8444   stm32f10x_usart.o
        80          8          0          0          0        751   system.o
       480         38          0         20          0       1947   system_stm32f10x.o
       544         36          0         29       1174       2951   usart.o

    ----------------------------------------------------------------------
      5784        482        336        124       5464     305747   Object Totals
         0          0         32          0          0          0   (incl. Generated)
         0          0          0          4          2          0   (incl. Padding)

    ----------------------------------------------------------------------

      Code (inc. data)   RO Data    RW Data    ZI Data      Debug   Library Member Name

         0          0          0          0          0          0   entry.o
         0          0          0          0          0          0   entry10a.o
         0          0          0          0          0          0   entry11a.o
         8          4          0          0          0          0   entry2.o
         4          0          0          0          0          0   entry5.o
         0          0          0          0          0          0   entry7b.o
         0          0          0          0          0          0   entry8b.o
         8          4          0          0          0          0   entry9a.o
        30          0          0          0          0          0   handlers.o
        36          8          0          0          0         68   init.o
        36          0          0          0          0         68   memcpya.o
        50          8          0          0          0        152   printfb.o
         0          0          0          4          0          0   stdout.o

    ----------------------------------------------------------------------
       172         24          0          4          0        288   Library Totals
         0          0          0          0          0          0   (incl. Padding)

    ----------------------------------------------------------------------

      Code (inc. data)   RO Data    RW Data    ZI Data      Debug   Library Name

       172         24          0          4          0        288   mc_w.l

    ----------------------------------------------------------------------
       172         24          0          4          0        288   Library Totals

    ----------------------------------------------------------------------

==============================================================================


      Code (inc. data)   RO Data    RW Data    ZI Data      Debug   

      5956        506        336        128       5464     305043   Grand Totals
      5956        506        336        128       5464     305043   ELF Image Totals
      5956        506        336        128          0          0   ROM Totals

==============================================================================

    Total RO  Size (Code + RO Data)                 6292 (   6.14kB)
    Total RW  Size (RW Data + ZI Data)              5592 (   5.46kB)
    Total ROM Size (Code + RO Data + RW Data)       6420 (   6.27kB)

==============================================================================

