:10027C007F807E257D007C0012002612000E7FE818
:07028C007E0312029380FEC5
:04025500020C000097
:0700030000000000000022D4
:100293008E088F09E5091509AE08700215084E602E
:0702A300051202B880EE22F3
:0C02B8007F017E8E7D02DDFEDEFADFF6A7
:0102C4002217
:10000E00438901758CEC758A78D2AFD2A9D28C2235
:03000B00020214DA
:10021400C0E0C0D075D000C006C007758CEC758AEC
:1002240078050DE50D7002050CE524601BFF7E00CA
:10023400B52611EEB5250D852428F524F525F526DA
:10024400D20080048E258F26D007D006D0D0D0E0EF
:010254003277
:10025900C100022500000124000128001429000022
:100269000000000000000000000000000000000085
:02027900000083
:100026008F0B8E0A8D098C087F007EC27D017C00B5
:10003600AB0BAA0AA909A808C3120163701B75981D
:100046005075CDFF75CCFD75CBFF75CAFDD2CCD2F0
:10005600CDC2C9C2CBD2CA805A438920759850AC4A
:1000660008AD09AE0AAF0B120179009200000960D3
:100076000097000012C0009C0000258000A100002F
:10008600384000A600004B000000009C758DF480EF
:100096001A758DFA8015758DFD8010758DFE800B95
:1000A600758DFD858D8B7587808006858D8BE4F536
:0800B60087D28ED2AFD2AC223A
:0E02AA00C2ACC2998F993099FDC299D2AC2294
:0B02C5008B218A2289238D27D29922E9
:030023000201B324
:1001B300C0E0C083C082C0D075D000C000C001C001
:1001C30002C003309815C29874292524F8A699050E
:1001D30024E524D394124003752400309922C29954
:1001E300E527D394004017AB210523E523AA22700A
:1001F30002052214F912014AF59915278002C299C2
:10020300D003D002D001D000D0D0D082D083D0E0B0
:0102130032B8
:0602D000AE071202AA2293
:030000000200BE3D
:0C00BE00787FE4F6D8FD75813C02010556
:10014A00BB010689828A83E0225002E722BBFE02B3
:09015A00E32289828A83E49322E6
:10016300EB9FF5F0EA9E42F0E99D42F0EC6480C813
:0601730064809845F022B3
:10017900D083D082E4937012740193700DA3A3937A
:10018900F8740193F5828883E4737402936C701296
:100199007403936D700C7404936E70067405936FF9
:0A01A90060DDA3A3A3A3A3A380CAF3
:1000CA0002027CE493A3F8E493A34003F68001F2CE
:1000DA0008DFF48029E493A3F85407240CC8C33337
:1000EA00C4540F4420C8834004F456800146F6DF06
:1000FA00E4800B0102040810204080900255E47E3F
:10010A00019360BCA3FF543F30E509541FFEE493FA
:10011A00A360010ECF54C025E060A840B8E493A3C1
:10012A00FAE493A3F8E493A3C8C582C8CAC583CAEC
:10013A00F0A3C8C582C8CAC583CADFE9DEE780BEA4
:01027B000082
:00000001FF
