Component: ARM Compiler 5.05 update 1 (build 106) Tool: armlink [4d0efa]

==============================================================================

Section Cross References

    main.o(.text) refers to system.o(.text) for NVIC_Configuration
    main.o(.text) refers to usart.o(.text) for uart_init
    main.o(.text) refers to gpio.o(.text) for GpioInit
    main.o(.text) refers to delay.o(.text) for DelayInit
    main.o(.text) refers to looplist.o(.text) for rbCreate
    main.o(.text) refers to configmodulenoblock.o(.text) for ConfigModuleNoBlock
    main.o(.text) refers to strstr.o(.text) for strstr
    main.o(.text) refers to memseta.o(.text) for __aeabi_memclr
    main.o(.text) refers to usart.o(.bss) for Usart1SendBuff
    main.o(.text) refers to looplist.o(.bss) for Uart1rb
    main.o(.text) refers to usart.o(.data) for Usart1ReadFlage
    main.o(.text) refers to configmodulenoblock.o(.data) for ConfigConnectDispose
    main.o(.text) refers to main.o(.data) for maindelay
    system.o(.text) refers to misc.o(.text) for NVIC_PriorityGroupConfig
    delay.o(.text) refers to misc.o(.text) for SysTick_CLKSourceConfig
    delay.o(.text) refers to system_stm32f10x.o(.data) for SystemCoreClock
    delay.o(.text) refers to delay.o(.data) for SysTickCntMs
    delay.o(.text) refers to configmoduleblock.o(.data) for ConfigModuleBlockDelay
==============================================================================

Removing Unused input sections from the image.

    Removing stm32f10x_it.o(.rev16_text), (4 bytes).
    Removing stm32f10x_it.o(.revsh_text), (4 bytes).
    Removing main.o(.rev16_text), (4 bytes).
    Removing main.o(.revsh_text), (4 bytes).
    Removing system.o(.rev16_text), (4 bytes).
    Removing system.o(.revsh_text), (4 bytes).
    Removing delay.o(.rev16_text), (4 bytes).
    Removing delay.o(.revsh_text), (4 bytes).
    Removing usart.o(.rev16_text), (4 bytes).
    Removing usart.o(.revsh_text), (4 bytes).
    Removing gpio.o(.rev16_text), (4 bytes).
    Removing gpio.o(.revsh_text), (4 bytes).
    Removing test.o(.rev16_text), (4 bytes).
    Removing test.o(.revsh_text), (4 bytes).
    Removing test.o(.text), (8 bytes).
    Removing test.o(.data), (1 bytes).
    Removing looplist.o(.rev16_text), (4 bytes).
    Removing looplist.o(.revsh_text), (4 bytes).
==============================================================================

Image Symbol Table

    Local Symbols

    Symbol Name                              Value     Ov Type        Size  Object(Section)

    ../clib/microlib/division.c              0x00000000   Number         0  uidiv.o ABSOLUTE
    ../clib/microlib/division.c              0x00000000   Number         0  uldiv.o ABSOLUTE
    ../clib/microlib/init/entry.s            0x00000000   Number         0  entry11b.o ABSOLUTE
    ../clib/microlib/init/entry.s            0x00000000   Number         0  entry10a.o ABSOLUTE
    ../clib/microlib/init/entry.s            0x00000000   Number         0  entry9b.o ABSOLUTE
    ../clib/microlib/init/entry.s            0x00000000   Number         0  entry8b.o ABSOLUTE
    ../clib/microlib/init/entry.s            0x00000000   Number         0  entry7b.o ABSOLUTE
    ../clib/microlib/init/entry.s            0x00000000   Number         0  entry9a.o ABSOLUTE
    ../clib/microlib/init/entry.s            0x00000000   Number         0  entry.o ABSOLUTE
    ../clib/microlib/init/entry.s            0x00000000   Number         0  entry7a.o ABSOLUTE
    ../clib/microlib/init/entry.s            0x00000000   Number         0  entry8a.o ABSOLUTE
    ../clib/microlib/init/entry.s            0x00000000   Number         0  entry11a.o ABSOLUTE
    ../clib/microlib/init/entry.s            0x00000000   Number         0  entry10b.o ABSOLUTE
    ../clib/microlib/init/entry.s            0x00000000   Number         0  entry2.o ABSOLUTE
    ../clib/microlib/init/entry.s            0x00000000   Number         0  entry5.o ABSOLUTE
    ../clib/microlib/longlong.c              0x00000000   Number         0  llsshr.o ABSOLUTE
    ../clib/microlib/longlong.c              0x00000000   Number         0  llushr.o ABSOLUTE
    ../clib/microlib/longlong.c              0x00000000   Number         0  llshl.o ABSOLUTE
    ../clib/microlib/malloc/malloc.c         0x00000000   Number         0  mallocr.o ABSOLUTE
    ../clib/microlib/malloc/malloc.c         0x00000000   Number         0  malloca.o ABSOLUTE
    ../clib/microlib/malloc/malloc.c         0x00000000   Number         0  mallocra.o ABSOLUTE
    ../clib/microlib/malloc/malloc.c         0x00000000   Number         0  malloc.o ABSOLUTE
    ../clib/microlib/malloc/mvars.c          0x00000000   Number         0  mvars.o ABSOLUTE
    ../clib/microlib/printf/printf.c         0x00000000   Number         0  printf6.o ABSOLUTE
    ../clib/microlib/printf/printf.c         0x00000000   Number         0  printf7.o ABSOLUTE
    ../clib/microlib/printf/printf.c         0x00000000   Number         0  printfa.o ABSOLUTE
    ../clib/microlib/printf/printf.c         0x00000000   Number         0  printf8.o ABSOLUTE
    ../clib/microlib/printf/printf.c         0x00000000   Number         0  printf5.o ABSOLUTE
    ../clib/microlib/printf/printf.c         0x00000000   Number         0  printf4.o ABSOLUTE
    ../clib/microlib/printf/printf.c         0x00000000   Number         0  printf3.o ABSOLUTE
    ../clib/microlib/printf/printf.c         0x00000000   Number         0  printf2.o ABSOLUTE
    ../clib/microlib/printf/printf.c         0x00000000   Number         0  printf1.o ABSOLUTE
    ../clib/microlib/printf/printf.c         0x00000000   Number         0  printf0.o ABSOLUTE
    ../clib/microlib/printf/printf.c         0x00000000   Number         0  printfb.o ABSOLUTE
    ../clib/microlib/printf/stubs.s          0x00000000   Number         0  stubs.o ABSOLUTE
    ../clib/microlib/stdio/streams.c         0x00000000   Number         0  stdout.o ABSOLUTE
    ../clib/microlib/string/memcpy.c         0x00000000   Number         0  memcpyb.o ABSOLUTE
    ../clib/microlib/string/memcpy.c         0x00000000   Number         0  memcpya.o ABSOLUTE
    ../clib/microlib/string/memset.c         0x00000000   Number         0  memseta.o ABSOLUTE
    ../clib/microlib/string/strlen.c         0x00000000   Number         0  strlen.o ABSOLUTE
    ../clib/microlib/string/strstr.c         0x00000000   Number         0  strstr.o ABSOLUTE
    ../clib/microlib/string/strtok.c         0x00000000   Number         0  strtok_r.o ABSOLUTE
    ../clib/microlib/string/strtok.c         0x00000000   Number         0  strtok.o ABSOLUTE
    ../clib/microlib/stubs.s                 0x00000000   Number         0  iusefp.o ABSOLUTE
    ../fplib/microlib/fpadd.c                0x00000000   Number         0  dadd.o ABSOLUTE
    ../fplib/microlib/fpdiv.c                0x00000000   Number         0  ddiv.o ABSOLUTE
    ../fplib/microlib/fpepilogue.c           0x00000000   Number         0  depilogue.o ABSOLUTE
    ../fplib/microlib/fpfix.c                0x00000000   Number         0  dfixul.o ABSOLUTE
    ../fplib/microlib/fpmul.c                0x00000000   Number         0  dmul.o ABSOLUTE
    ..\CMSIS\core_cm3.c                      0x00000000   Number         0  core_cm3.o ABSOLUTE
    ..\CMSIS\system_stm32f10x.c              0x00000000   Number         0  system_stm32f10x.o ABSOLUTE
    ..\Libraries\src\misc.c                  0x00000000   Number         0  misc.o ABSOLUTE
    ..\Libraries\src\stm32f10x_flash.c       0x00000000   Number         0  stm32f10x_flash.o ABSOLUTE
    ..\Libraries\src\stm32f10x_gpio.c        0x00000000   Number         0  stm32f10x_gpio.o ABSOLUTE
    ..\Libraries\src\stm32f10x_rcc.c         0x00000000   Number         0  stm32f10x_rcc.o ABSOLUTE
    ..\Libraries\src\stm32f10x_usart.c       0x00000000   Number         0  stm32f10x_usart.o ABSOLUTE
    ..\Startup\startup_stm32f10x_hd.s        0x00000000   Number         0  startup_stm32f10x_hd.o ABSOLUTE
    ..\User\ConfigModuleBlock.c              0x00000000   Number         0  configmoduleblock.o ABSOLUTE
    ..\User\ConfigModuleNoBlock.c            0x00000000   Number         0  configmodulenoblock.o ABSOLUTE
    ..\User\LoopList.c                       0x00000000   Number         0  looplist.o ABSOLUTE
    ..\User\System.c                         0x00000000   Number         0  system.o ABSOLUTE
    ..\User\cString.c                        0x00000000   Number         0  cstring.o ABSOLUTE
    ..\User\delay.c                          0x00000000   Number         0  delay.o ABSOLUTE
    ..\User\gpio.c                           0x00000000   Number         0  gpio.o ABSOLUTE
    ..\User\main.c                           0x00000000   Number         0  main.o ABSOLUTE
    ..\User\stm32f10x_it.c                   0x00000000   Number         0  stm32f10x_it.o ABSOLUTE
    ..\User\test.c                           0x00000000   Number         0  test.o ABSOLUTE
    ..\User\usart.c                          0x00000000   Number         0  usart.o ABSOLUTE
    ..\\CMSIS\\core_cm3.c                    0x00000000   Number         0  core_cm3.o ABSOLUTE
    ..\\Libraries\\src\\misc.c               0x00000000   Number         0  misc.o ABSOLUTE
    ..\\Libraries\\src\\stm32f10x_flash.c    0x00000000   Number         0  stm32f10x_flash.o ABSOLUTE
    ..\\Libraries\\src\\stm32f10x_gpio.c     0x00000000   Number         0  stm32f10x_gpio.o ABSOLUTE
    ..\\Libraries\\src\\stm32f10x_rcc.c      0x00000000   Number         0  stm32f10x_rcc.o ABSOLUTE
    ..\\Libraries\\src\\stm32f10x_usart.c    0x00000000   Number         0  stm32f10x_usart.o ABSOLUTE
    ..\\User\\ConfigModuleBlock.c            0x00000000   Number         0  configmoduleblock.o ABSOLUTE
    ..\\User\\ConfigModuleNoBlock.c          0x00000000   Number         0  configmodulenoblock.o ABSOLUTE
    ..\\User\\LoopList.c                     0x00000000   Number         0  looplist.o ABSOLUTE
    ..\\User\\System.c                       0x00000000   Number         0  system.o ABSOLUTE
    ..\\User\\cString.c                      0x00000000   Number         0  cstring.o ABSOLUTE
    ..\\User\\delay.c                        0x00000000   Number         0  delay.o ABSOLUTE
    ..\\User\\gpio.c                         0x00000000   Number         0  gpio.o ABSOLUTE
    ..\\User\\main.c                         0x00000000   Number         0  main.o ABSOLUTE
    ..\\User\\stm32f10x_it.c                 0x00000000   Number         0  stm32f10x_it.o ABSOLUTE
    ..\\User\\test.c                         0x00000000   Number         0  test.o ABSOLUTE
    ..\\User\\usart.c                        0x00000000   Number         0  usart.o ABSOLUTE
    cdrcmple.s                               0x00000000   Number         0  cdrcmple.o ABSOLUTE
    dc.s                                     0x00000000   Number         0  dc.o ABSOLUTE
    handlers.s                               0x00000000   Number         0  handlers.o ABSOLUTE
    init.s                                   0x00000000   Number         0  init.o ABSOLUTE
    RESET                                    0x08000000   Section      304  startup_stm32f10x_hd.o(RESET)
    .ARM.Collect$$$$00000000                 0x08000130   Section        0  entry.o(.ARM.Collect$$$$00000000)
    .ARM.Collect$$$$00000001                 0x08000130   Section        4  entry2.o(.ARM.Collect$$$$00000001)
    .ARM.Collect$$$$00000004                 0x08000134   Section        4  entry5.o(.ARM.Collect$$$$00000004)
    .ARM.Collect$$$$00000008                 0x08000138   Section        0  entry7b.o(.ARM.Collect$$$$00000008)
    .ARM.Collect$$$$0000000A                 0x08000138   Section        0  entry8b.o(.ARM.Collect$$$$0000000A)
    .ARM.Collect$$$$0000000B                 0x08000138   Section        8  entry9a.o(.ARM.Collect$$$$0000000B)
    .ARM.Collect$$$$0000000D                 0x08000140   Section        0  entry10a.o(.ARM.Collect$$$$0000000D)
    .ARM.Collect$$$$0000000F                 0x08000140   Section        0  entry11a.o(.ARM.Collect$$$$0000000F)
    .ARM.Collect$$$$00002712                 0x08000140   Section        4  entry2.o(.ARM.Collect$$$$00002712)
    __lit__00000000                          0x08000140   Data           4  entry2.o(.ARM.Collect$$$$00002712)
    .text                                    0x08000144   Section        0  stm32f10x_it.o(.text)
    .text                                    0x08000188   Section        0  main.o(.text)
    .text                                    0x08000240   Section        0  system.o(.text)
    .text                                    0x08000294   Section        0  delay.o(.text)
    .text                                    0x08000390   Section        0  usart.o(.text)
    .text                                    0x08000550   Section        0  gpio.o(.text)
    .text                                    0x080005d0   Section        0  looplist.o(.text)
    .text                                    0x080008f0   Section        0  configmodulenoblock.o(.text)
    .text                                    0x08000cfc   Section        0  cstring.o(.text)
    .text                                    0x08000dc4   Section        0  system_stm32f10x.o(.text)
    SetSysClockTo72                          0x08000dc5   Thumb Code   214  system_stm32f10x.o(.text)
    SetSysClock                              0x08000e9b   Thumb Code     8  system_stm32f10x.o(.text)
    .text                                    0x08000fa4   Section        0  misc.o(.text)
    .text                                    0x08001080   Section        0  stm32f10x_rcc.o(.text)
    .text                                    0x08001424   Section        0  stm32f10x_usart.o(.text)
    .text                                    0x0800182c   Section        0  stm32f10x_gpio.o(.text)
    .text                                    0x08001b88   Section       36  startup_stm32f10x_hd.o(.text)
    .text                                    0x08001bac   Section        0  memcpya.o(.text)
    .text                                    0x08001bd0   Section        0  memseta.o(.text)
    .text                                    0x08001bf4   Section        0  strstr.o(.text)
    .text                                    0x08001c18   Section        0  strlen.o(.text)
    .text                                    0x08001c28   Section        0  strtok.o(.text)
    .text                                    0x08001c6c   Section       36  init.o(.text)
    i.__0printf$2                            0x08001c90   Section        0  printf2.o(i.__0printf$2)
    i.__0sprintf$2                           0x08001cb0   Section        0  printf2.o(i.__0sprintf$2)
    i.__scatterload_copy                     0x08001cd8   Section       14  handlers.o(i.__scatterload_copy)
    i.__scatterload_null                     0x08001ce6   Section        2  handlers.o(i.__scatterload_null)
    i.__scatterload_zeroinit                 0x08001ce8   Section       14  handlers.o(i.__scatterload_zeroinit)
    i._printf_core                           0x08001cf6   Section        0  printf2.o(i._printf_core)
    _printf_core                             0x08001cf7   Thumb Code   214  printf2.o(i._printf_core)
    i._sputc                                 0x08001dcc   Section        0  printf2.o(i._sputc)
    _sputc                                   0x08001dcd   Thumb Code    10  printf2.o(i._sputc)
    i.free                                   0x08001dd8   Section        0  malloc.o(i.free)
    i.malloc                                 0x08001e28   Section        0  malloc.o(i.malloc)
    .data                                    0x20000000   Section        4  main.o(.data)
    .data                                    0x20000004   Section        8  delay.o(.data)
    .data                                    0x2000000c   Section       19  usart.o(.data)
    flage                                    0x2000001e   Data           1  usart.o(.data)
    .data                                    0x20000020   Section       12  configmoduleblock.o(.data)
    .data                                    0x2000002c   Section       49  configmodulenoblock.o(.data)
    .data                                    0x20000060   Section        4  cstring.o(.data)
    .data                                    0x20000064   Section       20  system_stm32f10x.o(.data)
    .data                                    0x20000078   Section       20  stm32f10x_rcc.o(.data)
    APBAHBPrescTable                         0x20000078   Data          16  stm32f10x_rcc.o(.data)
    ADCPrescTable                            0x20000088   Data           4  stm32f10x_rcc.o(.data)
    .data                                    0x2000008c   Section        4  strtok.o(.data)
    state                                    0x2000008c   Data           4  strtok.o(.data)
    .data                                    0x20000090   Section        4  stdout.o(.data)
    .data                                    0x20000094   Section        4  mvars.o(.data)
    .data                                    0x20000098   Section        4  mvars.o(.data)
    .bss                                     0x2000009c   Section      650  usart.o(.bss)
    .bss                                     0x20000328   Section       16  looplist.o(.bss)
    .bss                                     0x20000338   Section       60  configmodulenoblock.o(.bss)
    HEAP                                     0x20000378   Section      512  startup_stm32f10x_hd.o(HEAP)
    STACK                                    0x20000578   Section     1024  startup_stm32f10x_hd.o(STACK)

    Global Symbols

    Symbol Name                              Value     Ov Type        Size  Object(Section)

    BuildAttributes$$THM_ISAv4$P$D$K$B$S$PE$A:L22UL41UL21$X:L11$S22US41US21$IEEE1$IW$USESV6$~STKCKD$USESV7$~SHL$OSPACE$ROPI$EBA8$MICROLIB$REQ8$PRES8$EABIv2 0x00000000   Number         0  anon$$obj.o ABSOLUTE
    __ARM_use_no_argv                        0x00000000   Number         0  main.o ABSOLUTE
    _printf_a                                0x00000000   Number         0  stubs.o ABSOLUTE
    _printf_c                                0x00000000   Number         0  stubs.o ABSOLUTE
    _printf_charcount                        0x00000000   Number         0  stubs.o ABSOLUTE
    _printf_d                                0x00000000   Number         0  stubs.o ABSOLUTE
    _printf_e                                0x00000000   Number         0  stubs.o ABSOLUTE
    _printf_f                                0x00000000   Number         0  stubs.o ABSOLUTE
    _printf_flags                            0x00000000   Number         0  stubs.o ABSOLUTE
    _printf_fp_dec                           0x00000000   Number         0  stubs.o ABSOLUTE
    _printf_fp_hex                           0x00000000   Number         0  stubs.o ABSOLUTE
    _printf_g                                0x00000000   Number         0  stubs.o ABSOLUTE
    _printf_i                                0x00000000   Number         0  stubs.o ABSOLUTE
    _printf_int_dec                          0x00000000   Number         0  stubs.o ABSOLUTE
    _printf_l                                0x00000000   Number         0  stubs.o ABSOLUTE
    _printf_lc                               0x00000000   Number         0  stubs.o ABSOLUTE
    _printf_ll                               0x00000000   Number         0  stubs.o ABSOLUTE
    _printf_lld                              0x00000000   Number         0  stubs.o ABSOLUTE
    _printf_lli                              0x00000000   Number         0  stubs.o ABSOLUTE
    _printf_llo                              0x00000000   Number         0  stubs.o ABSOLUTE
    _printf_llu                              0x00000000   Number         0  stubs.o ABSOLUTE
    _printf_llx                              0x00000000   Number         0  stubs.o ABSOLUTE
    _printf_longlong_dec                     0x00000000   Number         0  stubs.o ABSOLUTE
    _printf_longlong_hex                     0x00000000   Number         0  stubs.o ABSOLUTE
    _printf_longlong_oct                     0x00000000   Number         0  stubs.o ABSOLUTE
    _printf_ls                               0x00000000   Number         0  stubs.o ABSOLUTE
    _printf_mbtowc                           0x00000000   Number         0  stubs.o ABSOLUTE
    _printf_n                                0x00000000   Number         0  stubs.o ABSOLUTE
    _printf_o                                0x00000000   Number         0  stubs.o ABSOLUTE
    _printf_p                                0x00000000   Number         0  stubs.o ABSOLUTE
    _printf_percent                          0x00000000   Number         0  stubs.o ABSOLUTE
    _printf_pre_padding                      0x00000000   Number         0  stubs.o ABSOLUTE
    _printf_return_value                     0x00000000   Number         0  stubs.o ABSOLUTE
    _printf_s                                0x00000000   Number         0  stubs.o ABSOLUTE
    _printf_sizespec                         0x00000000   Number         0  stubs.o ABSOLUTE
    _printf_str                              0x00000000   Number         0  stubs.o ABSOLUTE
    _printf_truncate_signed                  0x00000000   Number         0  stubs.o ABSOLUTE
    _printf_truncate_unsigned                0x00000000   Number         0  stubs.o ABSOLUTE
    _printf_u                                0x00000000   Number         0  stubs.o ABSOLUTE
    _printf_wc                               0x00000000   Number         0  stubs.o ABSOLUTE
    _printf_wctomb                           0x00000000   Number         0  stubs.o ABSOLUTE
    _printf_widthprec                        0x00000000   Number         0  stubs.o ABSOLUTE
    _printf_x                                0x00000000   Number         0  stubs.o ABSOLUTE
    __cpp_initialize__aeabi_                  - Undefined Weak Reference
    __cxa_finalize                            - Undefined Weak Reference
    __decompress                              - Undefined Weak Reference
    _clock_init                               - Undefined Weak Reference
    _microlib_exit                            - Undefined Weak Reference
    __Vectors_Size                           0x00000130   Number         0  startup_stm32f10x_hd.o ABSOLUTE
    __Vectors                                0x08000000   Data           4  startup_stm32f10x_hd.o(RESET)
    __Vectors_End                            0x08000130   Data           0  startup_stm32f10x_hd.o(RESET)
    __main                                   0x08000131   Thumb Code     0  entry.o(.ARM.Collect$$$$00000000)
    _main_stk                                0x08000131   Thumb Code     0  entry2.o(.ARM.Collect$$$$00000001)
    _main_scatterload                        0x08000135   Thumb Code     0  entry5.o(.ARM.Collect$$$$00000004)
    __main_after_scatterload                 0x08000139   Thumb Code     0  entry5.o(.ARM.Collect$$$$00000004)
    _main_clock                              0x08000139   Thumb Code     0  entry7b.o(.ARM.Collect$$$$00000008)
    _main_cpp_init                           0x08000139   Thumb Code     0  entry8b.o(.ARM.Collect$$$$0000000A)
    _main_init                               0x08000139   Thumb Code     0  entry9a.o(.ARM.Collect$$$$0000000B)
    __rt_final_cpp                           0x08000141   Thumb Code     0  entry10a.o(.ARM.Collect$$$$0000000D)
    __rt_final_exit                          0x08000141   Thumb Code     0  entry11a.o(.ARM.Collect$$$$0000000F)
    NMI_Handler                              0x08000145   Thumb Code     2  stm32f10x_it.o(.text)
    HardFault_Handler                        0x08000147   Thumb Code    40  stm32f10x_it.o(.text)
    MemManage_Handler                        0x0800016f   Thumb Code     4  stm32f10x_it.o(.text)
    BusFault_Handler                         0x08000173   Thumb Code     4  stm32f10x_it.o(.text)
    UsageFault_Handler                       0x08000177   Thumb Code     4  stm32f10x_it.o(.text)
    SVC_Handler                              0x0800017b   Thumb Code     2  stm32f10x_it.o(.text)
    DebugMon_Handler                         0x0800017d   Thumb Code     2  stm32f10x_it.o(.text)
    PendSV_Handler                           0x0800017f   Thumb Code     2  stm32f10x_it.o(.text)
    main                                     0x08000189   Thumb Code   132  main.o(.text)
    NVIC_Configuration                       0x08000241   Thumb Code    40  system.o(.text)
    Reset_MCU                                0x08000269   Thumb Code    36  system.o(.text)
    DelayInit                                0x08000295   Thumb Code    90  delay.o(.text)
    delay_ms                                 0x080002ef   Thumb Code    18  delay.o(.text)
    SysTick_Handler                          0x08000301   Thumb Code    96  delay.o(.text)
    uart_init                                0x08000391   Thumb Code   124  usart.o(.text)
    UsartOutStr                              0x0800040d   Thumb Code    42  usart.o(.text)
    UsartOutChar                             0x08000437   Thumb Code    28  usart.o(.text)
    USART1_IRQHandler                        0x08000453   Thumb Code   172  usart.o(.text)
    fputc                                    0x080004ff   Thumb Code    48  usart.o(.text)
    GpioInit                                 0x08000551   Thumb Code   120  gpio.o(.text)
    rbCreate                                 0x080005d1   Thumb Code    34  looplist.o(.text)
    rbDelete                                 0x080005f3   Thumb Code    28  looplist.o(.text)
    rbCapacity                               0x0800060f   Thumb Code    22  looplist.o(.text)
    rbCanRead                                0x08000625   Thumb Code    62  looplist.o(.text)
    rbCanWrite                               0x08000663   Thumb Code    36  looplist.o(.text)
    rbRead                                   0x08000687   Thumb Code   176  looplist.o(.text)
    rbWrite                                  0x08000737   Thumb Code   178  looplist.o(.text)
    PutData                                  0x080007e9   Thumb Code    74  looplist.o(.text)
    ConnectRouter                            0x080008f1   Thumb Code    28  configmodulenoblock.o(.text)
    FunctionParseGetMac                      0x0800090d   Thumb Code   104  configmodulenoblock.o(.text)
    SendConfigFunction                       0x08000975   Thumb Code   102  configmodulenoblock.o(.text)
    FunctionParseCompare                     0x080009db   Thumb Code    94  configmodulenoblock.o(.text)
    ConfigModuleNoBlock                      0x08000a39   Thumb Code   378  configmodulenoblock.o(.text)
    cStringFree                              0x08000cfd   Thumb Code    12  cstring.o(.text)
    StrBetwString                            0x08000d09   Thumb Code   100  cstring.o(.text)
    split                                    0x08000d6d   Thumb Code    84  cstring.o(.text)
    SystemInit                               0x08000ea3   Thumb Code    78  system_stm32f10x.o(.text)
    SystemCoreClockUpdate                    0x08000ef1   Thumb Code   142  system_stm32f10x.o(.text)
    NVIC_PriorityGroupConfig                 0x08000fa5   Thumb Code    10  misc.o(.text)
    NVIC_Init                                0x08000faf   Thumb Code   100  misc.o(.text)
    NVIC_SetVectorTable                      0x08001013   Thumb Code    14  misc.o(.text)
    NVIC_SystemLPConfig                      0x08001021   Thumb Code    34  misc.o(.text)
    SysTick_CLKSourceConfig                  0x08001043   Thumb Code    40  misc.o(.text)
    RCC_DeInit                               0x08001081   Thumb Code    64  stm32f10x_rcc.o(.text)
    RCC_HSEConfig                            0x080010c1   Thumb Code    70  stm32f10x_rcc.o(.text)
    RCC_GetFlagStatus                        0x08001107   Thumb Code    56  stm32f10x_rcc.o(.text)
    RCC_WaitForHSEStartUp                    0x0800113f   Thumb Code    56  stm32f10x_rcc.o(.text)
    RCC_AdjustHSICalibrationValue            0x08001177   Thumb Code    20  stm32f10x_rcc.o(.text)
    RCC_HSICmd                               0x0800118b   Thumb Code     6  stm32f10x_rcc.o(.text)
    RCC_PLLConfig                            0x08001191   Thumb Code    24  stm32f10x_rcc.o(.text)
    RCC_PLLCmd                               0x080011a9   Thumb Code     6  stm32f10x_rcc.o(.text)
    RCC_SYSCLKConfig                         0x080011af   Thumb Code    18  stm32f10x_rcc.o(.text)
    RCC_GetSYSCLKSource                      0x080011c1   Thumb Code    10  stm32f10x_rcc.o(.text)
    RCC_HCLKConfig                           0x080011cb   Thumb Code    18  stm32f10x_rcc.o(.text)
    RCC_PCLK1Config                          0x080011dd   Thumb Code    18  stm32f10x_rcc.o(.text)
    RCC_PCLK2Config                          0x080011ef   Thumb Code    20  stm32f10x_rcc.o(.text)
    RCC_ITConfig                             0x08001203   Thumb Code    26  stm32f10x_rcc.o(.text)
    RCC_USBCLKConfig                         0x0800121d   Thumb Code     8  stm32f10x_rcc.o(.text)
    RCC_ADCCLKConfig                         0x08001225   Thumb Code    18  stm32f10x_rcc.o(.text)
    RCC_LSEConfig                            0x08001237   Thumb Code    50  stm32f10x_rcc.o(.text)
    RCC_LSICmd                               0x08001269   Thumb Code     6  stm32f10x_rcc.o(.text)
    RCC_RTCCLKConfig                         0x0800126f   Thumb Code    12  stm32f10x_rcc.o(.text)
    RCC_RTCCLKCmd                            0x0800127b   Thumb Code     8  stm32f10x_rcc.o(.text)
    RCC_GetClocksFreq                        0x08001283   Thumb Code   192  stm32f10x_rcc.o(.text)
    RCC_AHBPeriphClockCmd                    0x08001343   Thumb Code    26  stm32f10x_rcc.o(.text)
    RCC_APB2PeriphClockCmd                   0x0800135d   Thumb Code    26  stm32f10x_rcc.o(.text)
    RCC_APB1PeriphClockCmd                   0x08001377   Thumb Code    26  stm32f10x_rcc.o(.text)
    RCC_APB2PeriphResetCmd                   0x08001391   Thumb Code    26  stm32f10x_rcc.o(.text)
    RCC_APB1PeriphResetCmd                   0x080013ab   Thumb Code    26  stm32f10x_rcc.o(.text)
    RCC_BackupResetCmd                       0x080013c5   Thumb Code     8  stm32f10x_rcc.o(.text)
    RCC_ClockSecuritySystemCmd               0x080013cd   Thumb Code     6  stm32f10x_rcc.o(.text)
    RCC_MCOConfig                            0x080013d3   Thumb Code     6  stm32f10x_rcc.o(.text)
    RCC_ClearFlag                            0x080013d9   Thumb Code    14  stm32f10x_rcc.o(.text)
    RCC_GetITStatus                          0x080013e7   Thumb Code    20  stm32f10x_rcc.o(.text)
    RCC_ClearITPendingBit                    0x080013fb   Thumb Code     6  stm32f10x_rcc.o(.text)
    USART_DeInit                             0x08001425   Thumb Code   134  stm32f10x_usart.o(.text)
    USART_Init                               0x080014ab   Thumb Code   210  stm32f10x_usart.o(.text)
    USART_StructInit                         0x0800157d   Thumb Code    24  stm32f10x_usart.o(.text)
    USART_ClockInit                          0x08001595   Thumb Code    34  stm32f10x_usart.o(.text)
    USART_ClockStructInit                    0x080015b7   Thumb Code    12  stm32f10x_usart.o(.text)
    USART_Cmd                                0x080015c3   Thumb Code    24  stm32f10x_usart.o(.text)
    USART_ITConfig                           0x080015db   Thumb Code    74  stm32f10x_usart.o(.text)
    USART_DMACmd                             0x08001625   Thumb Code    18  stm32f10x_usart.o(.text)
    USART_SetAddress                         0x08001637   Thumb Code    18  stm32f10x_usart.o(.text)
    USART_WakeUpConfig                       0x08001649   Thumb Code    18  stm32f10x_usart.o(.text)
    USART_ReceiverWakeUpCmd                  0x0800165b   Thumb Code    24  stm32f10x_usart.o(.text)
    USART_LINBreakDetectLengthConfig         0x08001673   Thumb Code    18  stm32f10x_usart.o(.text)
    USART_LINCmd                             0x08001685   Thumb Code    24  stm32f10x_usart.o(.text)
    USART_SendData                           0x0800169d   Thumb Code     8  stm32f10x_usart.o(.text)
    USART_ReceiveData                        0x080016a5   Thumb Code    10  stm32f10x_usart.o(.text)
    USART_SendBreak                          0x080016af   Thumb Code    10  stm32f10x_usart.o(.text)
    USART_SetGuardTime                       0x080016b9   Thumb Code    16  stm32f10x_usart.o(.text)
    USART_SetPrescaler                       0x080016c9   Thumb Code    16  stm32f10x_usart.o(.text)
    USART_SmartCardCmd                       0x080016d9   Thumb Code    24  stm32f10x_usart.o(.text)
    USART_SmartCardNACKCmd                   0x080016f1   Thumb Code    24  stm32f10x_usart.o(.text)
    USART_HalfDuplexCmd                      0x08001709   Thumb Code    24  stm32f10x_usart.o(.text)
    USART_OverSampling8Cmd                   0x08001721   Thumb Code    22  stm32f10x_usart.o(.text)
    USART_OneBitMethodCmd                    0x08001737   Thumb Code    24  stm32f10x_usart.o(.text)
    USART_IrDAConfig                         0x0800174f   Thumb Code    18  stm32f10x_usart.o(.text)
    USART_IrDACmd                            0x08001761   Thumb Code    24  stm32f10x_usart.o(.text)
    USART_GetFlagStatus                      0x08001779   Thumb Code    26  stm32f10x_usart.o(.text)
    USART_ClearFlag                          0x08001793   Thumb Code    18  stm32f10x_usart.o(.text)
    USART_GetITStatus                        0x080017a5   Thumb Code    84  stm32f10x_usart.o(.text)
    USART_ClearITPendingBit                  0x080017f9   Thumb Code    52  stm32f10x_usart.o(.text)
    GPIO_DeInit                              0x0800182d   Thumb Code   172  stm32f10x_gpio.o(.text)
    GPIO_AFIODeInit                          0x080018d9   Thumb Code    20  stm32f10x_gpio.o(.text)
    GPIO_Init                                0x080018ed   Thumb Code   278  stm32f10x_gpio.o(.text)
    GPIO_StructInit                          0x08001a03   Thumb Code    16  stm32f10x_gpio.o(.text)
    GPIO_ReadInputDataBit                    0x08001a13   Thumb Code    18  stm32f10x_gpio.o(.text)
    GPIO_ReadInputData                       0x08001a25   Thumb Code     8  stm32f10x_gpio.o(.text)
    GPIO_ReadOutputDataBit                   0x08001a2d   Thumb Code    18  stm32f10x_gpio.o(.text)
    GPIO_ReadOutputData                      0x08001a3f   Thumb Code     8  stm32f10x_gpio.o(.text)
    GPIO_SetBits                             0x08001a47   Thumb Code     4  stm32f10x_gpio.o(.text)
    GPIO_ResetBits                           0x08001a4b   Thumb Code     4  stm32f10x_gpio.o(.text)
    GPIO_WriteBit                            0x08001a4f   Thumb Code    10  stm32f10x_gpio.o(.text)
    GPIO_Write                               0x08001a59   Thumb Code     4  stm32f10x_gpio.o(.text)
    GPIO_PinLockConfig                       0x08001a5d   Thumb Code    18  stm32f10x_gpio.o(.text)
    GPIO_EventOutputConfig                   0x08001a6f   Thumb Code    26  stm32f10x_gpio.o(.text)
    GPIO_EventOutputCmd                      0x08001a89   Thumb Code     6  stm32f10x_gpio.o(.text)
    GPIO_PinRemapConfig                      0x08001a8f   Thumb Code   138  stm32f10x_gpio.o(.text)
    GPIO_EXTILineConfig                      0x08001b19   Thumb Code    66  stm32f10x_gpio.o(.text)
    GPIO_ETH_MediaInterfaceConfig            0x08001b5b   Thumb Code     8  stm32f10x_gpio.o(.text)
    Reset_Handler                            0x08001b89   Thumb Code     8  startup_stm32f10x_hd.o(.text)
    ADC1_2_IRQHandler                        0x08001ba3   Thumb Code     0  startup_stm32f10x_hd.o(.text)
    ADC3_IRQHandler                          0x08001ba3   Thumb Code     0  startup_stm32f10x_hd.o(.text)
    CAN1_RX1_IRQHandler                      0x08001ba3   Thumb Code     0  startup_stm32f10x_hd.o(.text)
    CAN1_SCE_IRQHandler                      0x08001ba3   Thumb Code     0  startup_stm32f10x_hd.o(.text)
    DMA1_Channel1_IRQHandler                 0x08001ba3   Thumb Code     0  startup_stm32f10x_hd.o(.text)
    DMA1_Channel2_IRQHandler                 0x08001ba3   Thumb Code     0  startup_stm32f10x_hd.o(.text)
    DMA1_Channel3_IRQHandler                 0x08001ba3   Thumb Code     0  startup_stm32f10x_hd.o(.text)
    DMA1_Channel4_IRQHandler                 0x08001ba3   Thumb Code     0  startup_stm32f10x_hd.o(.text)
    DMA1_Channel5_IRQHandler                 0x08001ba3   Thumb Code     0  startup_stm32f10x_hd.o(.text)
    DMA1_Channel6_IRQHandler                 0x08001ba3   Thumb Code     0  startup_stm32f10x_hd.o(.text)
    DMA1_Channel7_IRQHandler                 0x08001ba3   Thumb Code     0  startup_stm32f10x_hd.o(.text)
    DMA2_Channel1_IRQHandler                 0x08001ba3   Thumb Code     0  startup_stm32f10x_hd.o(.text)
    DMA2_Channel2_IRQHandler                 0x08001ba3   Thumb Code     0  startup_stm32f10x_hd.o(.text)
    DMA2_Channel3_IRQHandler                 0x08001ba3   Thumb Code     0  startup_stm32f10x_hd.o(.text)
    DMA2_Channel4_5_IRQHandler               0x08001ba3   Thumb Code     0  startup_stm32f10x_hd.o(.text)
    EXTI0_IRQHandler                         0x08001ba3   Thumb Code     0  startup_stm32f10x_hd.o(.text)
    EXTI15_10_IRQHandler                     0x08001ba3   Thumb Code     0  startup_stm32f10x_hd.o(.text)
    EXTI1_IRQHandler                         0x08001ba3   Thumb Code     0  startup_stm32f10x_hd.o(.text)
    EXTI2_IRQHandler                         0x08001ba3   Thumb Code     0  startup_stm32f10x_hd.o(.text)
    EXTI3_IRQHandler                         0x08001ba3   Thumb Code     0  startup_stm32f10x_hd.o(.text)
    EXTI4_IRQHandler                         0x08001ba3   Thumb Code     0  startup_stm32f10x_hd.o(.text)
    EXTI9_5_IRQHandler                       0x08001ba3   Thumb Code     0  startup_stm32f10x_hd.o(.text)
    FLASH_IRQHandler                         0x08001ba3   Thumb Code     0  startup_stm32f10x_hd.o(.text)
    FSMC_IRQHandler                          0x08001ba3   Thumb Code     0  startup_stm32f10x_hd.o(.text)
    I2C1_ER_IRQHandler                       0x08001ba3   Thumb Code     0  startup_stm32f10x_hd.o(.text)
    I2C1_EV_IRQHandler                       0x08001ba3   Thumb Code     0  startup_stm32f10x_hd.o(.text)
    I2C2_ER_IRQHandler                       0x08001ba3   Thumb Code     0  startup_stm32f10x_hd.o(.text)
    I2C2_EV_IRQHandler                       0x08001ba3   Thumb Code     0  startup_stm32f10x_hd.o(.text)
    PVD_IRQHandler                           0x08001ba3   Thumb Code     0  startup_stm32f10x_hd.o(.text)
    RCC_IRQHandler                           0x08001ba3   Thumb Code     0  startup_stm32f10x_hd.o(.text)
    RTCAlarm_IRQHandler                      0x08001ba3   Thumb Code     0  startup_stm32f10x_hd.o(.text)
    RTC_IRQHandler                           0x08001ba3   Thumb Code     0  startup_stm32f10x_hd.o(.text)
    SDIO_IRQHandler                          0x08001ba3   Thumb Code     0  startup_stm32f10x_hd.o(.text)
    SPI1_IRQHandler                          0x08001ba3   Thumb Code     0  startup_stm32f10x_hd.o(.text)
    SPI2_IRQHandler                          0x08001ba3   Thumb Code     0  startup_stm32f10x_hd.o(.text)
    SPI3_IRQHandler                          0x08001ba3   Thumb Code     0  startup_stm32f10x_hd.o(.text)
    TAMPER_IRQHandler                        0x08001ba3   Thumb Code     0  startup_stm32f10x_hd.o(.text)
    TIM1_BRK_IRQHandler                      0x08001ba3   Thumb Code     0  startup_stm32f10x_hd.o(.text)
    TIM1_CC_IRQHandler                       0x08001ba3   Thumb Code     0  startup_stm32f10x_hd.o(.text)
    TIM1_TRG_COM_IRQHandler                  0x08001ba3   Thumb Code     0  startup_stm32f10x_hd.o(.text)
    TIM1_UP_IRQHandler                       0x08001ba3   Thumb Code     0  startup_stm32f10x_hd.o(.text)
    TIM2_IRQHandler                          0x08001ba3   Thumb Code     0  startup_stm32f10x_hd.o(.text)
    TIM3_IRQHandler                          0x08001ba3   Thumb Code     0  startup_stm32f10x_hd.o(.text)
    TIM4_IRQHandler                          0x08001ba3   Thumb Code     0  startup_stm32f10x_hd.o(.text)
    TIM5_IRQHandler                          0x08001ba3   Thumb Code     0  startup_stm32f10x_hd.o(.text)
    TIM6_IRQHandler                          0x08001ba3   Thumb Code     0  startup_stm32f10x_hd.o(.text)
    TIM7_IRQHandler                          0x08001ba3   Thumb Code     0  startup_stm32f10x_hd.o(.text)
    TIM8_BRK_IRQHandler                      0x08001ba3   Thumb Code     0  startup_stm32f10x_hd.o(.text)
    TIM8_CC_IRQHandler                       0x08001ba3   Thumb Code     0  startup_stm32f10x_hd.o(.text)
    TIM8_TRG_COM_IRQHandler                  0x08001ba3   Thumb Code     0  startup_stm32f10x_hd.o(.text)
    TIM8_UP_IRQHandler                       0x08001ba3   Thumb Code     0  startup_stm32f10x_hd.o(.text)
    UART4_IRQHandler                         0x08001ba3   Thumb Code     0  startup_stm32f10x_hd.o(.text)
    UART5_IRQHandler                         0x08001ba3   Thumb Code     0  startup_stm32f10x_hd.o(.text)
    USART2_IRQHandler                        0x08001ba3   Thumb Code     0  startup_stm32f10x_hd.o(.text)
    USART3_IRQHandler                        0x08001ba3   Thumb Code     0  startup_stm32f10x_hd.o(.text)
    USBWakeUp_IRQHandler                     0x08001ba3   Thumb Code     0  startup_stm32f10x_hd.o(.text)
    USB_HP_CAN1_TX_IRQHandler                0x08001ba3   Thumb Code     0  startup_stm32f10x_hd.o(.text)
    USB_LP_CAN1_RX0_IRQHandler               0x08001ba3   Thumb Code     0  startup_stm32f10x_hd.o(.text)
    WWDG_IRQHandler                          0x08001ba3   Thumb Code     0  startup_stm32f10x_hd.o(.text)
    __aeabi_memcpy                           0x08001bad   Thumb Code    36  memcpya.o(.text)
    __aeabi_memcpy4                          0x08001bad   Thumb Code     0  memcpya.o(.text)
    __aeabi_memcpy8                          0x08001bad   Thumb Code     0  memcpya.o(.text)
    __aeabi_memset                           0x08001bd1   Thumb Code    14  memseta.o(.text)
    __aeabi_memset4                          0x08001bd1   Thumb Code     0  memseta.o(.text)
    __aeabi_memset8                          0x08001bd1   Thumb Code     0  memseta.o(.text)
    __aeabi_memclr                           0x08001bdf   Thumb Code     4  memseta.o(.text)
    __aeabi_memclr4                          0x08001bdf   Thumb Code     0  memseta.o(.text)
    __aeabi_memclr8                          0x08001bdf   Thumb Code     0  memseta.o(.text)
    _memset$wrapper                          0x08001be3   Thumb Code    18  memseta.o(.text)
    strstr                                   0x08001bf5   Thumb Code    36  strstr.o(.text)
    strlen                                   0x08001c19   Thumb Code    14  strlen.o(.text)
    strtok                                   0x08001c29   Thumb Code    62  strtok.o(.text)
    __scatterload                            0x08001c6d   Thumb Code    28  init.o(.text)
    __scatterload_rt2                        0x08001c6d   Thumb Code     0  init.o(.text)
    __0printf$2                              0x08001c91   Thumb Code    22  printf2.o(i.__0printf$2)
    __1printf$2                              0x08001c91   Thumb Code     0  printf2.o(i.__0printf$2)
    __2printf                                0x08001c91   Thumb Code     0  printf2.o(i.__0printf$2)
    __0sprintf$2                             0x08001cb1   Thumb Code    34  printf2.o(i.__0sprintf$2)
    __1sprintf$2                             0x08001cb1   Thumb Code     0  printf2.o(i.__0sprintf$2)
    __2sprintf                               0x08001cb1   Thumb Code     0  printf2.o(i.__0sprintf$2)
    __scatterload_copy                       0x08001cd9   Thumb Code    14  handlers.o(i.__scatterload_copy)
    __scatterload_null                       0x08001ce7   Thumb Code     2  handlers.o(i.__scatterload_null)
    __scatterload_zeroinit                   0x08001ce9   Thumb Code    14  handlers.o(i.__scatterload_zeroinit)
    free                                     0x08001dd9   Thumb Code    76  malloc.o(i.free)
    malloc                                   0x08001e29   Thumb Code    92  malloc.o(i.malloc)
    Region$$Table$$Base                      0x08001e94   Number         0  anon$$obj.o(Region$$Table)
    Region$$Table$$Limit                     0x08001eb4   Number         0  anon$$obj.o(Region$$Table)
    maindelay                                0x20000000   Data           4  main.o(.data)
    SysTickLedTime                           0x20000004   Data           4  delay.o(.data)
    SysTickCntMs                             0x20000008   Data           4  delay.o(.data)
    Usart1ReadCnt                            0x2000000c   Data           4  usart.o(.data)
    Usart1ReadCntCopy                        0x20000010   Data           4  usart.o(.data)
    Usart1IdleCnt                            0x20000014   Data           4  usart.o(.data)
    Usart1IdleTime                           0x20000018   Data           4  usart.o(.data)
    Usart1ReadFlage                          0x2000001c   Data           1  usart.o(.data)
    Usart1SendDat                            0x2000001d   Data           1  usart.o(.data)
    ConfigModuleBlockCnt                     0x20000020   Data           4  configmoduleblock.o(.data)
    ConfigModuleBlockFlage                   0x20000024   Data           4  configmoduleblock.o(.data)
    ConfigModuleBlockDelay                   0x20000028   Data           4  configmoduleblock.o(.data)
    ConfigConnectDispose                     0x2000002c   Data           4  configmodulenoblock.o(.data)
    ConfigModuleNoBlockCnt                   0x20000030   Data           4  configmodulenoblock.o(.data)
    ConfigModuleNoBlockCaseValue             0x20000034   Data           4  configmodulenoblock.o(.data)
    ConfigModuleNoBlockFlage                 0x20000038   Data           1  configmodulenoblock.o(.data)
    CompareValue                             0x2000003c   Data           4  configmodulenoblock.o(.data)
    SendNextDelay                            0x20000040   Data           4  configmodulenoblock.o(.data)
    Cnt                                      0x20000044   Data           4  configmodulenoblock.o(.data)
    DataReturnFlage                          0x20000048   Data           1  configmodulenoblock.o(.data)
    SSID                                     0x20000049   Data          10  configmodulenoblock.o(.data)
    PWD                                      0x20000053   Data          10  configmodulenoblock.o(.data)
    Str                                      0x20000060   Data           4  cstring.o(.data)
    SystemCoreClock                          0x20000064   Data           4  system_stm32f10x.o(.data)
    AHBPrescTable                            0x20000068   Data          16  system_stm32f10x.o(.data)
    __stdout                                 0x20000090   Data           4  stdout.o(.data)
    __microlib_freelist                      0x20000094   Data           4  mvars.o(.data)
    __microlib_freelist_initialised          0x20000098   Data           4  mvars.o(.data)
    Usart1ReadBuff                           0x2000009c   Data         150  usart.o(.bss)
    Usart1SendBuff                           0x20000132   Data         500  usart.o(.bss)
    Uart1rb                                  0x20000328   Data          16  looplist.o(.bss)
    HopeReturnData1                          0x20000338   Data          20  configmodulenoblock.o(.bss)
    HopeReturnData2                          0x2000034c   Data          20  configmodulenoblock.o(.bss)
    MAC                                      0x20000360   Data          20  configmodulenoblock.o(.bss)
    __heap_base                              0x20000378   Data           0  startup_stm32f10x_hd.o(HEAP)
    __heap_limit                             0x20000578   Data           0  startup_stm32f10x_hd.o(HEAP)
    __initial_sp                             0x20000978   Data           0  startup_stm32f10x_hd.o(STACK)



==============================================================================

Memory Map of the image

  Image Entry point : 0x08000131

  Load Region LR_IROM1 (Base: 0x08000000, Size: 0x00001f50, Max: 0x00010000, ABSOLUTE)

    Execution Region ER_IROM1 (Base: 0x08000000, Size: 0x00001eb4, Max: 0x00010000, ABSOLUTE)

    Base Addr    Size         Type   Attr      Idx    E Section Name        Object

    0x08000000   0x00000130   Data   RO          578    RESET               startup_stm32f10x_hd.o
    0x08000130   0x00000000   Code   RO          583  * .ARM.Collect$$$$00000000  mc_w.l(entry.o)
    0x08000130   0x00000004   Code   RO          891    .ARM.Collect$$$$00000001  mc_w.l(entry2.o)
    0x08000134   0x00000004   Code   RO          894    .ARM.Collect$$$$00000004  mc_w.l(entry5.o)
    0x08000138   0x00000000   Code   RO          896    .ARM.Collect$$$$00000008  mc_w.l(entry7b.o)
    0x08000138   0x00000000   Code   RO          898    .ARM.Collect$$$$0000000A  mc_w.l(entry8b.o)
    0x08000138   0x00000008   Code   RO          899    .ARM.Collect$$$$0000000B  mc_w.l(entry9a.o)
    0x08000140   0x00000000   Code   RO          901    .ARM.Collect$$$$0000000D  mc_w.l(entry10a.o)
    0x08000140   0x00000000   Code   RO          903    .ARM.Collect$$$$0000000F  mc_w.l(entry11a.o)
    0x08000140   0x00000004   Code   RO          892    .ARM.Collect$$$$00002712  mc_w.l(entry2.o)
    0x08000144   0x00000044   Code   RO            3    .text               stm32f10x_it.o
    0x08000188   0x000000b8   Code   RO          121    .text               main.o
    0x08000240   0x00000054   Code   RO          197    .text               system.o
    0x08000294   0x000000fc   Code   RO          221    .text               delay.o
    0x08000390   0x000001c0   Code   RO          251    .text               usart.o
    0x08000550   0x00000080   Code   RO          278    .text               gpio.o
    0x080005d0   0x00000320   Code   RO          324    .text               looplist.o
    0x080008f0   0x0000040c   Code   RO          376    .text               configmodulenoblock.o
    0x08000cfc   0x000000c8   Code   RO          403    .text               cstring.o
    0x08000dc4   0x000001e0   Code   RO          437    .text               system_stm32f10x.o
    0x08000fa4   0x000000dc   Code   RO          476    .text               misc.o
    0x08001080   0x000003a4   Code   RO          496    .text               stm32f10x_rcc.o
    0x08001424   0x00000408   Code   RO          518    .text               stm32f10x_usart.o
    0x0800182c   0x0000035c   Code   RO          558    .text               stm32f10x_gpio.o
    0x08001b88   0x00000024   Code   RO          579    .text               startup_stm32f10x_hd.o
    0x08001bac   0x00000024   Code   RO          586    .text               mc_w.l(memcpya.o)
    0x08001bd0   0x00000024   Code   RO          588    .text               mc_w.l(memseta.o)
    0x08001bf4   0x00000024   Code   RO          590    .text               mc_w.l(strstr.o)
    0x08001c18   0x0000000e   Code   RO          592    .text               mc_w.l(strlen.o)
    0x08001c26   0x00000002   PAD
    0x08001c28   0x00000044   Code   RO          594    .text               mc_w.l(strtok.o)
    0x08001c6c   0x00000024   Code   RO          923    .text               mc_w.l(init.o)
    0x08001c90   0x00000020   Code   RO          669    i.__0printf$2       mc_w.l(printf2.o)
    0x08001cb0   0x00000028   Code   RO          671    i.__0sprintf$2      mc_w.l(printf2.o)
    0x08001cd8   0x0000000e   Code   RO          935    i.__scatterload_copy  mc_w.l(handlers.o)
    0x08001ce6   0x00000002   Code   RO          936    i.__scatterload_null  mc_w.l(handlers.o)
    0x08001ce8   0x0000000e   Code   RO          937    i.__scatterload_zeroinit  mc_w.l(handlers.o)
    0x08001cf6   0x000000d6   Code   RO          676    i._printf_core      mc_w.l(printf2.o)
    0x08001dcc   0x0000000a   Code   RO          678    i._sputc            mc_w.l(printf2.o)
    0x08001dd6   0x00000002   PAD
    0x08001dd8   0x00000050   Code   RO          863    i.free              mc_w.l(malloc.o)
    0x08001e28   0x0000006c   Code   RO          864    i.malloc            mc_w.l(malloc.o)
    0x08001e94   0x00000020   Data   RO          933    Region$$Table       anon$$obj.o


    Execution Region RW_IRAM1 (Base: 0x20000000, Size: 0x00000978, Max: 0x00005000, ABSOLUTE)

    Base Addr    Size         Type   Attr      Idx    E Section Name        Object

    0x20000000   0x00000004   Data   RW          122    .data               main.o
    0x20000004   0x00000008   Data   RW          222    .data               delay.o
    0x2000000c   0x00000013   Data   RW          253    .data               usart.o
    0x2000001f   0x00000001   PAD
    0x20000020   0x0000000c   Data   RW          351    .data               configmoduleblock.o
    0x2000002c   0x00000031   Data   RW          378    .data               configmodulenoblock.o
    0x2000005d   0x00000003   PAD
    0x20000060   0x00000004   Data   RW          404    .data               cstring.o
    0x20000064   0x00000014   Data   RW          438    .data               system_stm32f10x.o
    0x20000078   0x00000014   Data   RW          497    .data               stm32f10x_rcc.o
    0x2000008c   0x00000004   Data   RW          595    .data               mc_w.l(strtok.o)
    0x20000090   0x00000004   Data   RW          905    .data               mc_w.l(stdout.o)
    0x20000094   0x00000004   Data   RW          910    .data               mc_w.l(mvars.o)
    0x20000098   0x00000004   Data   RW          911    .data               mc_w.l(mvars.o)
    0x2000009c   0x0000028a   Zero   RW          252    .bss                usart.o
    0x20000326   0x00000002   PAD
    0x20000328   0x00000010   Zero   RW          325    .bss                looplist.o
    0x20000338   0x0000003c   Zero   RW          377    .bss                configmodulenoblock.o
    0x20000374   0x00000004   PAD
    0x20000378   0x00000200   Zero   RW          577    HEAP                startup_stm32f10x_hd.o
    0x20000578   0x00000400   Zero   RW          576    STACK               startup_stm32f10x_hd.o


==============================================================================

Image component sizes


      Code (inc. data)   RO Data    RW Data    ZI Data      Debug   Object Name

         0          0          0         12          0        437   configmoduleblock.o
      1036        340          0         49         60       3604   configmodulenoblock.o
       200          4          0          4          0       1612   cstring.o
       252         48          0          8          0      23374   delay.o
       128          8          0          0          0        567   gpio.o
       800        190          0          0         16       3833   looplist.o
       184         52          0          4          0       2067   main.o
       220         22          0          0          0       1873   misc.o
        36          8        304          0       1536        836   startup_stm32f10x_hd.o
       860         38          0          0          0       5721   stm32f10x_gpio.o
        68          8          0          0          0     254729   stm32f10x_it.o
       932         36          0         20          0       8940   stm32f10x_rcc.o
      1032         22          0          0          0       8444   stm32f10x_usart.o
        84          8          0          0          0        771   system.o
       480         38          0         20          0       1947   system_stm32f10x.o
       448         34          0         19        650       2560   usart.o

    ----------------------------------------------------------------------
      6760        856        336        140       2268     321315   Object Totals
         0          0         32          0          0          0   (incl. Generated)
         0          0          0          4          6          0   (incl. Padding)

    ----------------------------------------------------------------------

      Code (inc. data)   RO Data    RW Data    ZI Data      Debug   Library Member Name

         0          0          0          0          0          0   entry.o
         0          0          0          0          0          0   entry10a.o
         0          0          0          0          0          0   entry11a.o
         8          4          0          0          0          0   entry2.o
         4          0          0          0          0          0   entry5.o
         0          0          0          0          0          0   entry7b.o
         0          0          0          0          0          0   entry8b.o
         8          4          0          0          0          0   entry9a.o
        30          0          0          0          0          0   handlers.o
        36          8          0          0          0         68   init.o
       188         20          0          0          0        160   malloc.o
        36          0          0          0          0         68   memcpya.o
        36          0          0          0          0        108   memseta.o
         0          0          0          8          0          0   mvars.o
       296         16          0          0          0        328   printf2.o
         0          0          0          4          0          0   stdout.o
        14          0          0          0          0         68   strlen.o
        36          0          0          0          0         80   strstr.o
        68          6          0          4          0         80   strtok.o

    ----------------------------------------------------------------------
       764         58          0         16          0        960   Library Totals
         4          0          0          0          0          0   (incl. Padding)

    ----------------------------------------------------------------------

      Code (inc. data)   RO Data    RW Data    ZI Data      Debug   Library Name

       760         58          0         16          0        960   mc_w.l

    ----------------------------------------------------------------------
       764         58          0         16          0        960   Library Totals

    ----------------------------------------------------------------------

==============================================================================


      Code (inc. data)   RO Data    RW Data    ZI Data      Debug   

      7524        914        336        156       2268     320867   Grand Totals
      7524        914        336        156       2268     320867   ELF Image Totals
      7524        914        336        156          0          0   ROM Totals

==============================================================================

    Total RO  Size (Code + RO Data)                 7860 (   7.68kB)
    Total RW  Size (RW Data + ZI Data)              2424 (   2.37kB)
    Total ROM Size (Code + RO Data + RW Data)       8016 (   7.83kB)

==============================================================================

